:020000022000DC
:1060000000000420C15A0300015B030079CE0300A5
:10601000055B0300075B0300095B03000000000051
:106020000000000000000000000000002DB403008C
:106030000D5B0300000000004DB40300115B030082
:106040009DB50300135B0300135B0300135B0300A8
:10605000135B0300135B0300135B0300135B03007C
:10606000135B0300135B0300135B0300135B03006C
:10607000135B0300135B0300135B0300135B03005C
:10608000135B030085B10300135B0300135B030084
:10609000135B0300135B030079E50200135B03004D
:1060A000135B0300135B0300135B0300135B03002C
:1060B000135B0300135B03000000000000000000FE
:1060C000135B0300135B0300135B0300135B03000C
:1060D000135B0300135B0300135B030055CA03004B
:1060E000135B0300135B0300135B0300000000005D
:1060F00000000000135B030000000000135B0300BE
:10610000000000000000000000000000000000008F
:10611000000000000000000000000000000000007F
:10612000000000000000000000000000000000006F
:10613000000000000000000000000000000000005F
:10614000000000000000000000000000000000004F
:10615000000000000000000000000000000000003F
:10616000000000000000000000000000000000002F
:10617000000000000000000000000000000000001F
:10618000000000000000000000000000000000000F
:1061900000000000000000000000000000000000FF
:1061A00000000000000000000000000000000000EF
:1061B00000000000000000000000000000000000DF
:1061C00000000000000000000000000000000000CF
:1061D00000000000000000000000000000000000BF
:1061E00000000000000000000000000000000000AF
:1061F000000000000000000000000000000000009F
:10620000F1EE103A43F08073E1EE103A704700BFB0
:1062100010B5054C237833B9044B13B10448AFF3E0
:1062200000800123237010BDB06300200000000037
:106230002030040008B5034B1BB103490348AFF3FA
:10624000008008BD00000000B4630020203004007E
:10625000154B002B08BF134B9D46A3F5803A002138
:106260008B460F461348144A121A17F0EFFC0F4BD7
:10627000002B00D098470E4B002B00D098470020F1
:10628000002104000D000D48002802D00C48AFF397
:10629000008017F071FC2000290016F06DFC17F04B
:1062A00045FC00BF000008000000042000000000C2
:1062B00000000000B0630020C8CB002000000000F8
:1062C0000000000041F2A873984200F00B8117D83B
:1062D00040F6A763984200F0038140F2898041F2C2
:1062E000A733984200F0EF8076D941F2A753984245
:1062F00000F0DB8041F2A763984219D1E520704796
:1063000042F2A703984200F0E88030D942F2A75346
:10631000984200F0DA801BD942F2A773984200F04D
:10632000C18043F6A723984209D14FF40E707047FD
:1063300041F2A74398420CBFE3200020704742F28D
:10634000A76240F2272390420CBF184600207047F6
:1063500042F2A733984200F0B1801AD942F2A74224
:1063600040F2252390420CBF18460020704741F6AA
:10637000A843984200F0AC8021D941F6A763984227
:1063800000F08D8041F6A77398420FD14FF4C97089
:10639000704742F2A713984276D042F2A72240F209
:1063A000232390420CBF18460020704741F6A752A5
:1063B00040F2831390420CBF18460020704741F60C
:1063C000A823984277D024D941F6A83398420CBF2D
:1063D0004FF4AA700020704741F2A713984268D08A
:1063E00023D941F2A72398420CBFE0200020704738
:1063F00040F6A70398426ED02DD940F6A7339842B5
:1064000055D01DD940F6A74398420CBFC8200020A4
:10641000704741F6A80398423FD041F6A81398422E
:106420000CBF4FF4A9700020704740F6A773984244
:1064300031D041F2A70398420CBFB620002070472C
:1064400040F6A713984224D040F6A72398420CBFE9
:10645000C6200020704740F2A763984231D0B0F5C3
:10646000D56F06D340F2A77398420CBF6F2000206F
:10647000704740F2A743984209D040F2A753984290
:106480000CBF31200020704740F22120704730209F
:1064900070470C207047B5207047EA2070474FF4D2
:1064A000C570704740F22A207047E4207047C7202B
:1064B0007047B720704740F2531070474FF409708F
:1064C000704732207047E220704740F22620704724
:1064D00040F255107047702070474FF4CA707047F3
:1064E000CD207047E920704738B504460D460C3082
:1064F00000F0F0FCC5F3074205232583C4F81A20F9
:106500002360204638BD00BFF0B59DB2012D42D1B9
:1065100071B34C1EE4B2C4EB041402EB42056400F8
:1065200004EB4504A0F11E0600F1180C044406EB30
:106530004506E646570001E0A6421CD0258B012DFA
:10654000A4F11E04F8D0C1EB01114900174401EB7E
:1065500047070EEB0701C3F307432EF80750C1F8B6
:106560000230BDB1BDE8F04011460C3000F0B8BCBF
:1065700000F1180C57003A445200C1EB011102EB34
:1065800041010CEB0102C3F3074300202CF801008A
:10659000C2F80230F0BD00F1180E5700D3E700BF7B
:1065A0000C3000F0A9BC00BF0C3000F0C5BC00BF2F
:1065B00070B5064601F10C000C46154600F0F0FCE3
:1065C000431E042B15D822689A421ED0C5EB051233
:1065D00004EB420203EB430502EB4502236052F851
:1065E000180F60609388238123893060B380304620
:1065F00070BD0023A380E38023816068228930601E
:106600000523B2802360304670BD20F002000128CF
:1066100004D000233380C6F80230F4E7D4F8063003
:10662000012BF6D0606823893060B380EBE700BFB0
:1066300010B50446006808B116F0F0FA204610BD07
:1066400010B4034C034B21601A605DF8044B704793
:10665000586400205C64002038B514680B68084951
:106660004FF4A27202FB04F240F6DC05044605FB7F
:10667000032008442146FFF793FF024B1C6038BDFE
:10668000AC680020E863002030B415680B68074C44
:106690004FF4A27202FB05F240F6DC0505FB032372
:1066A0000146E01830BCFFF77FBF00BFAC68002098
:1066B000014B1880704700BFFC630020014B186835
:1066C000704700BFE86300202DE9F84FD0E900894A
:1066D0006FF04045A9EB0803B5EB630F4BD0934631
:1066E0005A1006460F46A1EB0804002A41D09A42F0
:1066F0001BD9254D284616F081FA8246BBF800309A
:106700002AF80430002C054418DCA9EB07090234F0
:10671000B9F1000F544426DC4C44B8F1000F1AD1F3
:10672000C6E900A4B560BDE8F88F3BBB9A461D469C
:10673000002CBBF800302AF80430E6DD2246414642
:106740005046A9EB070917F067FA0234B9F1000FB8
:10675000544408DC4C44404616F060FAC6E900A4F4
:10676000B560BDE8F88F39464A46204617F046FA2C
:10677000D2E70225BEE7054802F072F8AB4228BF17
:106780002B465D00B6E700BFFEFFFF7FE812040066
:106790000B1A30B4DD10002D3ADD138800EBC5056F
:1067A0000BE044889C420DD084889C420DD0C48864
:1067B0009C420DD00830A8420DD004889C42F0D1F4
:1067C00030BC7047023030BC7047043030BC70477A
:1067D000063030BC70470B1A5B10022B12D0032B13
:1067E0000AD0012B02D0084630BC704713880288BB
:1067F0009A42E5D00846F7E7138802889A42DFD02C
:10680000023000E0138802889A42D9D00230EEE7C5
:106810005B10E2E72DE9F04F8F4D904FD5E9001363
:106820009942D7E90043A3EB040218BF6960002A2C
:1068300087B04FEA620619DDDFF81C8208E0228883
:1068400023F8022B013E6B6004F102040CD069684E
:10685000AA688A420B46F2D122464046FFF734FF2F
:10686000013E04F10204F2D1D7E90043A3427C4B7C
:1068700018BF7C601B885BB15A085B1008D00027EA
:1068800001375310FFB29AB2002BF9D1BBB200E02E
:106890001F46744A744E1268DFF8DCB1DFF8D491F9
:1068A000DFF8C8A113824FF00008A6F6DC0403E06D
:1068B00004F5A274A64221D03A46214604A8FFF767
:1068C00077FEBDF81020ADF80E20002AF0D0D5E9F3
:1068D00001108142DDF8123079D021F8022B696075
:1068E000012B5BD0022B7AD09DF80E3004F5A274F8
:1068F000DF2B98BF4FF00108A642DDD106F6DC067B
:10690000B345D2D1D9E900431B1B002B4FEA6306E4
:1069100016DD514F07E0228823F8022B013E6B6001
:1069200004F102040CD0D5E9011291420B46F2D1D8
:1069300022463846FFF7C8FE013E04F10204F2D1B8
:10694000B8F1000F27D0494FD7E900431A1B002A9E
:106950004FEA620619DDDFF8008107E0228823F89C
:10696000022B013E6B6004F102040CD0D5E9011248
:1069700091420B46F2D122464046FFF7A5FE013E6A
:1069800004F10204F2D1D7E900439C42384B18BF0E
:106990007C6000221A8007B0BDE8F08FD9E90001C1
:1069A0000DF10E024FF00003FFF7F2FED9F80420BC
:1069B0009042014638D002318A4204D0521A17F070
:1069C0002BF9D9F804100239C9F8041070E72248ED
:1069D00001930DF10E02FFF777FE019B80E7DAE9E4
:1069E00000010DF10E024FF00003FFF7D1FEDAF8BF
:1069F000041081427FF45CAFDAF80830994224D069
:106A0000BDF80E3021F8023BCAF804109DF80E3094
:106A1000EF2B7FF64DAF1648F03B0188012202FABA
:106A200003F30B43038043E7D9F80830984206D0BC
:106A3000BDF80E3021F8023BC9F8041038E70D48C4
:106A40000DF10E02FFF740FE32E70DF10E02504647
:106A5000FFF73AFEDAE700BFCC630020DC630020DA
:106A60004E6400205C6400208871002030640020A7
:106A70001464002018640020B0A600202DE9F04F17
:106A8000AB4BAC4CAC4EAD4A1B882588B2F800E04D
:106A9000DFF8D0C2DFF8D092DFF8D082A84FDFF85D
:106AA000D0A296E807002B4343EA0E03ACF800306F
:106AB0004B4603C34FF0000B83B01A80C6F800B0FA
:106AC000A6F804B086F806B0A6F808B088F800B0BA
:106AD00087F800B0FFF79EFEDAE900218A42A4F8A9
:106AE00000B000F06B815B4694464FF0010E3CF81D
:106AF000020BC0B2A0F1F00BEF280EFA0BFB03D98A
:106B00004BEA03039BB223806145F0D1DFF864B206
:106B1000DFF864C2BBF80000ED1A18BF01258CF83D
:106B20000050002840F02A8186480190044698F8D9
:106B300000C0387894F800A096460EE006EB0C04EE
:106B40000CF1010C284362705FFA8CFCBCF1060F5B
:106B500008BF4FF0000C714562D03EF8024BE2B224
:106B6000A2F1040B5FFA8BFBBBF1A00F4FEA1425D7
:106B7000E4D9A53A422A00F25181DFE812F08B00F5
:106B800043007D007A007700740043004F014F01FD
:106B90004F014F014F014F014F014F014F014F0175
:106BA0004F014F014F014F014F014F014F014F0165
:106BB0004F014F014F014F014F014F014F014F0155
:106BC0004F014F014F014F014F014F014F014F0145
:106BD0004F014F014F014F014F014F014F014F0135
:106BE0004F014F014F014F014F014F014F014F0125
:106BF0004F014F01B200AD00A800A3009E00990014
:106C000094008600BAF1000FA0D1BCF1060F4E4AE5
:106C100008BF4FF0000C714514804FF0010A9CD161
:106C200030703288B9F800103870019888F800C0C8
:106C3000914280F800A0338157D0444B44491B68EF
:106C40001868986001230B70BAF1000F07D07388A1
:106C5000B18813430B439BB2002B00F0A0800120AE
:106C600003B0BDE8F08F3B4A14806FE73A4A1480C6
:106C70006CE73A4A148069E7BAF1000F7FF466AF17
:106C8000364A4FF0010A148060E7284360F07F0025
:106C9000C0B25BE7BAF1000F7FF458AF304A4FF053
:106CA000010A148052E7284340F04000C0B24DE78B
:106CB000284340F02000C0B248E7284340F01000CD
:106CC000C0B243E7284340F00800C0B23EE7284383
:106CD00040F00400C0B239E7284340F00200C0B2DF
:106CE00034E7284340F0010030E7B9F80810994232
:106CF000A3D17188B9F8023099429ED1B188B9F810
:106D00000430994299D199F80630B179994294D1D9
:106D10000E4B0F491B681C689A68A21A00207D2A36
:106D200008709DD901209C60087003B0BDE8F08F09
:106D3000FC630020DA630020246400201464002037
:106D4000D86300204C6400204A6400205C6400206A
:106D50003C640020FE630020546400206064002036
:106D6000526400204E640020406400203D640020F6
:106D7000CC6300205064002000640020DAF8083062
:106D8000994244D021F8020BCAF8041000208A422C
:106D90002388ABF800007FF4C7AE184619E0B3793A
:106DA000002B7FF45CAF1E4C1E481F491F4A019DFB
:106DB00023802B7003800B80138050E7DFF880B0B6
:106DC0001B4BBBF80000003D18BF01251D700028BB
:106DD000D4D1184B01931B783A783270308113B1BB
:106DE000019A002313703288B9F80030934207D01B
:106DF000114B124A1B6801211868986011702EE728
:106E0000B9F808308342F3D14FF0000A71E70C4A19
:106E10000C48FFF759FCDAE90021B7E7284395E66B
:106E2000526400204A640020606400205464002002
:106E3000006400204C6400205C6400203C6400205E
:106E400050640020CC6300201A481B4A1B49D0B56F
:106E50000024C0E90044846016F028FE1848164A51
:106E600016498460C0E9004416F020FE1548124A15
:106E70001249846000260027C0E9006716F016FE5C
:106E800011480D4A0D498460C0E9004416F00EFE19
:106E90000E48094A09498460C0E9006716F006FEF9
:106EA0000B48054A8460C0E900440449BDE8D0406D
:106EB00016F0FCBDCC6300200060002031660200AB
:106EC000DC630020F06300201864002008640020C8
:106ED000306400200022C0E90122028082707047E5
:106EE0004B1E012B05D9033901299CBF0123837057
:106EF00070470123437070474368012B11D033F072
:106F0000020306D103782BB901231A46C0E90121F7
:106F1000037070478278002A16BF002301220522E1
:106F2000F4E78368CB1AC82BF3D94378002BF0D051
:106F30000323C0E901317047D0E90123012A10B4CD
:106F4000A1EB030319D0C82B03D8F2B95DF8044BA9
:106F5000704703784BB183783BB104220023C0E92A
:106F600001215DF8044B03707047002AEED0002326
:106F7000C0E901315DF8044B7047447854B9C82B1F
:106F800003D90378002BF2D0E5E7142BEFD85DF896
:106F9000044B70470223C0E901315DF8044B704790
:106FA00040687047014B1870704700BF04600020B4
:106FB000054A1388C3F580618B42BABF08339BB280
:106FC0004FF480631380704708600020044A1388E0
:106FD000082B86BF083B9BB208231380704700BF75
:106FE00008600020084B09481A88018847F6FF739B
:106FF00010B4A3EB8204A14202DA92008B189BB278
:107000005DF8044B03807047086000200660002094
:10701000064B074A198813888800B3EB810FC6BF57
:107020001B1A9BB200231380704700BF086000202A
:1070300006600020024B47F6FF721A80704700BFBF
:1070400006600020044A13780133DBB2032B88BFAB
:1070500000231370704700BF0460002040F63D23FA
:10706000984238D941F27B4398422BD941F6B86314
:1070700098423CD942F6F503984231D943F2333372
:10708000984239D9B0F5804F49D344F6CC43984261
:1070900051D945F69913984239D946F26663984218
:1070A0004ED947F25C53984254D8314BC0EBC000E4
:1070B000C0EBC000A3FB002347F6A07000EBD30099
:1070C00080B270472B4B00EB4000A3FB003000095F
:1070D0006B3880B27047284BA3FB003040087047E4
:1070E00000EB4000C010A0F2366080B2704780080C
:1070F000A0F26F2080B270471A231D4A03FB00F0F4
:10710000A2FB00300009A0F6424080B2704700EBBD
:1071100080008010A0F57350383880B27047144B4F
:1071200000EBC0004000A3FB0030C008A0F5B25047
:107130000C3880B27047A0F51A50083880B27047FA
:107140000C4BC000A3FB00308008A0F5B5401638FA
:1071500080B27047C0EB0012054BC0EB8200A3FB6E
:10716000002345F2B00000EBD30080B2704700BFAF
:107170001F85EB51CDCCCCCC398EE33870B52C4A81
:107180001378032B21D8DFE803F013022318B0F59E
:107190007A7F2ED2274B284C1888284D2080FFF765
:1071A0005DFF04F073FEB4F900202B889A420EDADA
:1071B000BDE87040002004F069BE1F4B1888FFF73F
:1071C0004DFFBDE8704004F061BE0023137070BD38
:1071D0001B4B1878C8B1174A184D174C10882A88CD
:1071E000B4F90010861AB1421ADA501880B2208021
:1071F000D5E7114C114DB4F900002B889842C6BF59
:10720000C01A80B200202080C9E70B4C0B4DB4F9A6
:10721000002029888A4207DD501A80B22080BEE70C
:10722000002220801A70BAE7012220801A70B6E787
:1072300004600020066000200A6000200860002032
:107240000560002008B5064807F02CFE0448002120
:1072500008F0F4F8BDE808400148002107F034BE0A
:1072600064640020014B1860704700BF106000206C
:10727000B0F57A7F10B51ED2164CFF232370164846
:1072800008F022F911F02CFD144B1A6843F6A623DE
:107290009A4207D1124A1378032B9ABF0133DBB20B
:1072A0000223137021780C4808F0E6F8BDE810407E
:1072B000094807F023BEB0F5206F03D3054C002327
:1072C0002370DCE7074B034CA3FB00306FEAD000D0
:1072D0002070D4E70C60002064640020106000205F
:1072E00062640020CDCCCCCC10B5054C204607F014
:1072F000B9FD2046034A0449BDE8104016F0D6BB4C
:10730000646400200060002089EE02007ADF70478C
:10731000034AD37C23F0010343F00603D374704780
:10732000D4670020024AD37C23F00603D37470474D
:10733000D4670020014B0022DA747047D467002024
:1073400070B588B0002304460D46014621480293DB
:10735000CDE90033CDE90333CDE90533079307F0D9
:10736000FFF820220646694605F0A6FE30460621B3
:1073700005F0C2FE6946184817F059FC2E1D174B40
:107380001749A3F8A440304606F006FC58B9154941
:10739000304606F001FC78B91349304606F0FCFB94
:1073A00098B908B070BD284605F0C0FC0D493046BC
:1073B00006F0F2FB0028EFD0284605F0B7FC0A499A
:1073C000304606F0E9FB0028EBD0284605F0AEFC7D
:1073D00008B070BD6C9E002058680020D467002063
:1073E00020650020D0640020806400202DE9F04159
:1073F00088B000230146064625480293CDE90033B4
:10740000CDE90333CDE90533079307F0A9F820222E
:107410000746694605F050FE1E4D0621384605F028
:107420006BFE69461C4817F002FC95F82F404FF0A0
:10743000200808FB0454483421464246684617F0A9
:1074400017FCD0B9154C384605F034FE95F82F30AE
:10745000183335F81320824204D025F81300012395
:1074600084F8AF30E37CA4F85C6023F0070343F0BA
:107470000803E37408B0BDE8F08120464246074C9B
:10748000694617F007FC012384F8AF30DBE700BF43
:107490006C9E00202C67002010680020D46700201C
:1074A0000F4BB3F85C20824213D0B3F880208242A5
:1074B00009D0B3F8A420824204D1012283F8A61097
:1074C00083F8AA207047012283F8821083F8A9204C
:1074D0007047012283F85E1083F8A820704700BF30
:1074E000D4670020092B00D8704710B5074C1068EE
:1074F0005168234603C312891A802089FFF7D8F800
:1075000011F0EEFB024BD86010BD00BFC865002033
:10751000D467002010B50349044606F041FF204619
:1075200010BD00BF6C9E002030B52A4C83B00621F0
:1075300020466D4604F0AAFE204604F08FFE284641
:1075400040F2434106F0FEFA95E80600204604F0BA
:107550003BFE284647F6021106F0F4FA95E80600CD
:10756000204604F031FE284642F29C3106F0EAFA49
:1075700095E80600204604F027FE28464DF2AB5160
:1075800006F0E0FA95E80600204604F01DFE1249D8
:10759000204604F025FE204604F032FE204601215C
:1075A00004F0AEFEF4222046202104F09DFE204689
:1075B0001E2104F097FE2046002104F001FF204622
:1075C000064904F095FE0649204604F093FE03B0F8
:1075D00030BD00BF6CA000206C650020117302005C
:1075E00025730200014804F051BF00BF6CA00020C9
:1075F00010B50A4C0A480023E37404F07DFE18B16C
:10760000E37C43F00403E374064806F07FFF18B1FF
:10761000E37C43F02003E37410BD00BFD467002077
:107620006CA000206C9E002008B5034806F06EFF99
:10763000003818BF012008BD6C9E0020704700BFB5
:10764000704700BFF0B484B004AB03E90700002426
:107650009DF805009DF806309DF809709DF80A60B8
:1076600013499DF80450224660F3070263F30F228A
:107670009DF8073008780F4963F317429DF80830EA
:107680004C8163F31F62234667F3070366F30F23FE
:1076900065F3174360F31F63BDF80C5006480A609A
:1076A0000C224B600D8104B0F0BC05F077BB00BF2D
:1076B000A86600207C6500207C64002010B4084986
:1076C000084A034614784B810023CC710B608B80F1
:1076D0008B7105485DF8044B0B810C2205F05EBBF5
:1076E0007C650020A86600207C64002010B4084956
:1076F000084A034614784B810023CC710B608B80C1
:107700008B7105485DF8044B0B810C2205F046BBDC
:107710007C650020A86600207C6400202DE9F041F3
:1077200082B06C462148DFF89C80214E214D224FCB
:1077300006F0C2FF204640F2434106F003FA94E807
:1077400006001E4806F0E4F9204647F6021106F04E
:10775000F9F994E80600404605F02AFA324629462F
:10776000404616F0A3F9204642F29C3106F0EAF9B1
:1077700094E80600384605F01BFA3246294638469A
:107780000F4F16F093F920464DF2AB5106F0DAF99F
:1077900094E80600384605F00BFA3246294638468A
:1077A00016F084F902B0BDE8F08100BF88650020C2
:1077B000006000204DC60200CC6400206C650020F3
:1077C0007C6400201C65002070B56D4B044693E876
:1077D000030086B004AD002285E80300012169485A
:1077E00006F04CFC6748002106F05EFE002165486B
:1077F00006F00CFE6449634806F0E0FD6148042190
:1078000006F038FC5F48012106F030FC40F2C1313F
:107810005C4806F073FE5D495A4806F0A9FE28460A
:10782000FFF774FD5A495B4805F0FEFF5A49594875
:1078300005F0FCFF002C40F08B8058495848594D0A
:10784000594E0C2206F072FF0F225849544806F098
:1078500069FF534806F06EFF554806F00FFF64219C
:107860005348002406F0FEFE524804F097F8C5E99C
:10787000004451482C81C6E90044B46006F02AF95E
:107880004E48122105F0E0F922464C48112105F03E
:10789000F3F94A480A2105F0DBF948480A2105F0C6
:1078A000D9F94749454805F0FDF9464943480122C1
:1078B00005F0F0F9414804F0D1FE29460A223F487C
:1078C00005F0F8F940480C2105F0BEF911222146D7
:1078D0003D4805F0D1F93C480A2105F0B9F93A488C
:1078E0000A2105F0B7F93949374805F0DBF938497D
:1078F0003548012205F0C6F9334804F0AFFE2946A9
:107900000A22314805F0D6F93248122105F09CF9D7
:1079100022463048112105F0AFF92E480C2105F020
:1079200097F92C480C2105F095F92B49294805F0C9
:10793000B9F924492748012205F0ACF9254804F09B
:107940008DFE31460C22234805F0B4F906B070BD17
:1079500068460C4906F024FD00980290C0F3072009
:107960000444BDF804209DF8063006488DF809400F
:1079700002A9ADF80C208DF80E3006F017FD5CE77B
:107980007C1304006C9E002004130400A174020008
:10799000ED7302001CA100203573020014130400D3
:1079A00088650020C86500207C6500202413040041
:1079B000D49D0020A86600206C6500201C65002076
:1079C0003413040041730200CC640020441304000B
:1079D000E57402007C6400205C13040010B50446CA
:1079E000006808B115F01AF9204610BD2DE9F047DE
:1079F0006648674E674C8CB015F012FA664815F071
:107A00000FFA0FCE6D460FC50FCE0FC596E80F00CB
:107A100007C562492B70204614F078FB6049614E1F
:107A2000204614F073FB204614F050FB5E492046BC
:107A300014F06CFB0DF1FF3A00275BE05B49204638
:107A400014F016FB0A222946204614F02DFC31467C
:107A5000204614F00DFB284614F084FA0A22C1B225
:107A6000204614F021FC3146204614F001FB02218F
:107A7000284614F019FA284614F074FA5FFA80F8D0
:107A80000A224146204614F00FFC3146204614F0ED
:107A9000EFFA0321284614F007FA284614F062FA98
:107AA0005FFA80F949460A22204614F0FDFB314670
:107AB000204614F0DDFAB8F1000F40D0B9F1010F03
:107AC0000CBF3B493B49204614F0D2FA012D3CD96A
:107AD000092D4BD00A2D44D0202D3BD136492046CC
:107AE00014F0C6FA013731462046FFB214F00EFBFF
:107AF0002D2F40D01AF8015F0021284614F0D4F948
:107B00000A223946204614F0CFFB3146204614F0B5
:107B1000AFFA29460A22204614F0C6FB3146204619
:107B200014F0A6FA1F2D89D92449204614F0A0FA92
:107B30000A22A5F12001204614F0F0FB87E7204936
:107B4000204614F095FA012DC2D81E49204614F0A3
:107B50008FFAC7E7122DC5D11B49204614F088FAC9
:107B6000C0E71A49204614F083FABBE718492046BB
:107B700014F07EFAB6E7054815F01EF9064815F030
:107B80001BF90CB0BDE8F04704F0AEB994680020D2
:107B9000AC14040084BD0020C0660020081404005A
:107BA000141404009C14040038140400601404002D
:107BB0007014040078140400941404006414040085
:107BC000681404007C140400A01404008C14040045
:107BD000841404002DE9F84FD0E900960546A6EB81
:107BE00009036FF00040834251D08A469346002B30
:107BF00048D0B3EB430F4FEA430831D98046AAEB94
:107C00000904404614F0FAFF074680449BF8003010
:107C10003B55002C0FDCA6EB0A060134002E3C4439
:107C200026DC3444B9F1000F11D1C5E90074C5F860
:107C30000880BDE8F88F224649463846A6EB0A067A
:107C400015F0EAFF0134002E3C4411DC3444484670
:107C500014F0E4FFC5E90074C5F80880BDE8F88FAA
:107C6000B8F1000FCADBA1EB0904CAD14746CDE742
:107C700020465146324615F0C1FF3444B9F1000F99
:107C8000D3D0E4E7A1EB09044FF00108B9E70148BC
:107C900000F0E6FDE81204000B1A30B49D10002D30
:107CA00015DD137800EB85050BE044789C4229D064
:107CB00084789C4229D0C4789C4229D00430A842C0
:107CC00004D004789C42F0D130BC70470B1A022BD0
:107CD00012D0032B04D0012B08D0084630BC7047CB
:107CE000137802789A42EFD0013006E013780278D8
:107CF0009A42E9D00846F1E7137802789A42E3D035
:107D00000130F4E7013030BC7047023030BC7047BE
:107D1000033030BC704700BF38B5384C054601E031
:107D200014F0B0FB204614F08FFB00282046F7DC4F
:107D30003349324814F0EAF9002D49D031492F482F
:107D400014F0E4F92E492D4814F0E0F92E492B489F
:107D500014F0DCF92D49294814F0D8F928492748AE
:107D600014F0D4F92A49254814F0D0F929492348B8
:107D700014F0CCF92849214814F0C8F927491F48C4
:107D800014F0C4F926491D4814F0C0F925491B48D0
:107D900014F0BCF91A49194814F0B8F922491748E7
:107DA00014F0B4F92149154814F0B0F914491348F6
:107DB00014F0ACF91E49114814F0A8F91D490F48F8
:107DC00014F0A4F9BDE838400D490C4814F09EB9F0
:107DD00019490A4814F09AF90949084814F096F923
:107DE0000949064814F092F91449044814F08EF930
:107DF0001349024814F08AF9ACE700BF84BD0020A3
:107E000084130400DC1404000C150400EC150400B9
:107E100020160400401604005C16040078160400C6
:107E2000A0160400BC160400D816040004170400B1
:107E30004017040068170400381504006415040096
:107E4000A81504002DE9F04FDFF874A3DFF8749350
:107E5000A3B0D34C204614F0F7FA002840F3B584C1
:107E600004F042F8204614F00DFBC0B2203855282B
:107E7000F0D801A353F820F041840200557E02009F
:107E8000557E0200557E0200557E0200557E02009E
:107E9000557E0200557E0200557E0200557E02008E
:107EA000557E0200557E0200557E0200557E02007E
:107EB000557E0200557E0200557E0200557E02006E
:107EC000557E0200557E0200557E0200557E02005E
:107ED000557E0200557E0200557E0200557E02004E
:107EE000557E0200557E0200557E0200557E02003E
:107EF000557E0200557E0200557E0200557E02002E
:107F0000557E0200557E0200557E0200557E02001D
:107F1000557E0200557E0200557E0200557E02000D
:107F2000557E0200557E0200557E0200557E0200FD
:107F3000557E0200557E0200557E0200557E0200ED
:107F4000557E0200557E0200557E0200557E0200DD
:107F5000557E0200557E0200557E0200557E0200CD
:107F6000557E0200557E0200557E0200557E0200BD
:107F7000557E0200557E0200557E0200557E0200AD
:107F8000F5830200EB8302008B84020083840200ED
:107F9000557E0200918402007F820200E982020085
:107FA000557E020029810200557E020015800200E4
:107FB000557E0200557E0200D77F0200557E0200EA
:107FC000FD870200557E0200557E0200D17F02002F
:107FD00013F050FE3DE7734C237B2578032B00F212
:107FE0001A84DFE813F058026B0204000400632DCA
:107FF000606840F2ED8315F0CBFC15AC02460B46F1
:1080000000956949204616F0CDFD2146644814F0DC
:108010007DF81EE76548664D664E14F001FF664820
:1080200014F0FEFE0020FFF777FE0FCD09AC05949B
:108030000FC40FCD0FC495E80F0007C4326823703A
:1080400012F0010200F0A5835C48036813F00103FD
:1080500000F09183DFF84881404614F0F5F90446BA
:10806000002840F05C8303F03FFF0DF12303059DE2
:10807000069314E0DAE900014FF000033246FFF7FF
:108080000BFEDAF80410814200F0288214ABB342F0
:1080900006D101350DF15103AB4200F00483069E79
:1080A00095F800B016F8017F5846012113F0FCFE48
:1080B0003846032113F0F8FE5846002113F034FF30
:1080C000384613F04FFF012103465846079313F03B
:1080D0002BFF384613F046FF0021024658469346D0
:1080E00013F0E2FE3846002113F0DEFE079B13F08A
:1080F000FF0FCBD11BF0FF0FC8D0D9E900012A46F2
:10810000FFF7CAFDD9F804108142B3D1D9F808307D
:10811000994200F0BC822B780B70D9F804300133FF
:10812000C9F804300124A5E72048214D214E14F060
:1081300077FE214814F074FE0120FFF7EDFD0FCD0E
:1081400009AC05940FC40FCD0FC495E80F0007C408
:108150003268237012F0010200F029831748036887
:1081600013F0010300F0F982DFF83480404614F088
:108170006BF9002840F0598203F0B6FED9E90032CD
:10818000934218BFC9F80430DAE90032934218BFAD
:10819000CAF804300DF12303059C0693002628E05D
:1081A00084BD0020A8660020201D040094680020E3
:1081B000AC140400D8650020C0660020D4650020FF
:1081C000E0650020F0650020DAE900014FF00003CF
:1081D0002A46FFF761FDDAF80410814200F0AA8216
:1081E00014ABAB4206D101340DF15103A34200F0B0
:1081F000E181069D94F800B015F8017F58460121F1
:1082000013F052FE3846032113F04EFE584600216B
:1082100013F08AFE384613F0A5FE012103465846A6
:10822000079313F081FE384613F09CFE00210246AE
:108230005846934613F038FE3846002113F034FEBA
:10824000079B13F0FF0FCBD11BF0FF0FC8D0D9E96C
:1082500000012246FFF720FDD9F80430984201467C
:10826000B2D1D9F80830984200F0468123780370E3
:10827000D9F804300133C9F804300126A4E7A14934
:10828000A14813F043FFA1499F4813F03FFFA049C5
:108290009D4813F03BFF9F499B4813F037FF9E49D1
:1082A000994813F033FF9D49974813F02FFF9C49DD
:1082B000954813F02BFF9B49934813F027FF9A49E9
:1082C000914813F023FF99498F4813F01FFF9849F5
:1082D0008D4813F01BFF97498B4813F017FF89490E
:1082E000894813F013FFB4E593498748934D13F081
:1082F0000DFF8449844813F009FF9149824813F027
:10830000B7FE904B80481968102213F0C1FF8E4BC6
:108310007D4819684FF08054102213F0CDFFD4F837
:1083200000218A49D4F80431774813F03FFFD4F88C
:1083300010218749D4F80C31734813F037FF854971
:10834000714813F0E3FE84496F4813F0DFFE834960
:108350006D4815AC13F0DAFE6A496B4813F0D6FE8F
:10836000002300227E49204616F01CFC2146664868
:1083700013F0CCFE6FF059027A49204616F012FC39
:108380002146614813F0C2FE77495F4813F0BEFEF4
:1083900095F98220754905F16003204616F002FC2C
:1083A0002146594813F0B2FE95F95E20704905F157
:1083B0003C03204616F0F6FB2146534813F0A6FE78
:1083C00095F9A6206B4905F18403204616F0EAFBD7
:1083D00021464D4813F09AFE4A494B4813F096FE49
:1083E00014F03EFE14F05AFD33E500F0E9FA02F015
:1083F000D9FE2EE56049444813F088FE5F494248A3
:1084000013F084FE404813F061FE5D493E4813F0CE
:108410007DFE012006F01AFB022006F017FB5948EA
:1084200004F0EEF8384813F051FE5749364813F07F
:108430006DFE012006F00AFB022006F007FB08E5AE
:108440005249314813F062FE51492F4813F05EFE45
:1084500050492D4813F05AFE4F492B4813F056FE51
:108460004E49294813F052FE4D49274813F04EFE5D
:108470002449254813F04AFE4A49234813F046FE92
:10848000E7E4494807F068F8E3E413F0FBFBE0E4B5
:10849000FFF7ACFADDE4606815F07AFA02460B46A5
:1084A000A068CDE9022315F073FA15ACCDE90001FF
:1084B0003E4A2046322116F041FBA6E5632D606856
:1084C000029540F2908115F063FA15ACCDE90001F8
:1084D000374A2046322116F031FB96E5DAF80830AB
:1084E000994200F0DA8033780B70DAF80430013307
:1084F000CAF804300124C9E522464846FFF76AFB62
:10850000012661E67414040084BD0020D01A040022
:108510000C1B04004C1B0400881B0400C41B04003B
:10852000F81B0400441C0400601C04007C1C0400B4
:10853000901C0400AC1C0400F4170400D467002055
:108540000C18040060000010640000101C180400E7
:10855000381804006418040088180400AC180400DB
:10856000CC180400E0180400F418040008190400F2
:108570001819040028190400C0170400141404007A
:10858000CC1704002CA10020E017040038190400C7
:108590007C190400C0190400041A0400481A0400DD
:1085A0008C1A0400C8130400D8A10020D01C0400B9
:1085B000F01C0400002E3FF4D9AD9849404613F05A
:1085C00057FDD9E90045AC420CD0954E14F8011B7B
:1085D0000A22404613F068FE3146404613F048FD3B
:1085E000A542F3D18F49404613F090FD8E49404695
:1085F00013F03EFDDAE90045AC420CD0884E14F889
:10860000011B0A22404613F04FFE3146404613F04C
:108610002FFDA542F3D18349404613F077FD404634
:1086200013F012FF00283FF4A7AD804C01E013F0D7
:1086300029FF204613F008FF00282046F7DCD9E97F
:108640000032934218BFC9F80430DAE900327849A1
:108650007648934218BFCAF8043013F057FD7549A5
:10866000724813F053FD7249704813F04FFD724980
:108670006E4813F04BFD71496C4813F047FD70488C
:1086800014F09AFB6F4814F097FBFFF7E2BB2A4601
:108690004846FFF79FFA0124ECE432465046FFF7C4
:1086A00099FA0124F2E4002C3FF4D6AC5B49404631
:1086B00013F0DEFCD9E90045AC420CD0584E14F85A
:1086C000011B0A22404613F0EFFD3146404613F0ED
:1086D000CFFCA542F3D15349404613F017FD524950
:1086E000404613F0C5FCDAE90045AC420CD04C4ED4
:1086F00014F8011B0A22404613F0D6FD31464046CD
:1087000013F0B6FCA542F3D14649404613F0FEFCF7
:10871000404613F099FE044600283FF4A4AC434CB5
:1087200001E013F0AFFE204613F08EFE0028204635
:10873000F7DC84E7DAF80830994208D02B780B7020
:10874000DAF804300133CAF80430012648E52A4635
:108750005046FFF73FFA012642E5CAF808300123E8
:10876000002400250360384A38495046CAE90045CC
:1087700015F09CF9F8E4CAF808300123002400251C
:108780000360314A31495046CAE9004515F08EF977
:1087900060E400200021C9E90001C9F80820012394
:1087A000294A2A493360484615F080F94CE40020F4
:1087B0000021C9E90001C9F808200123224A234900
:1087C0003360484615F072F9C8E423B0BDE8F08F75
:1087D00015F0DEF815AC02460B4600951C49204604
:1087E00016F0E0F911E415F0D3F815ACCDE900016D
:1087F000184A2046322116F0A1F906E4BFF34F8F44
:108800001549164BCA6802F4E0621343CB60BFF30C
:108810004F8F00BFFDE715ACFFF7F7BBA8170400AB
:10882000BC170400B0170400B417040084BD002076
:10883000841304000014040074140400C81304001A
:1088400094680020C066002000600020DD790200EE
:10885000381D0400081D040000ED00E00400FA05C6
:10886000FEE700BFBFF34F8F0549064BCA6802F40D
:10887000E0621343CB60BFF34F8F00BFFDE700BF43
:1088800000ED00E00400FA0532DF704741DF704779
:1088900010B50446006808B114F0C0F9204610BDB8
:1088A00070B5434C434DFDF709FFE36826689842D5
:1088B00038BF1846E060FDF701FF361AFEF798FE54
:1088C0002268636AA968D31A8B4247D9B6F57A7FC2
:1088D0008CBF02230023D4E90A01101AFB28A2EB63
:1088E000010195F8210028BF0323B1F5FA7F88BF65
:1088F0000123C0B1216B511A322914D995F82030C7
:1089000073B30623616B511A322910D9A36BD31AA2
:10891000642B29D830466263FEF730FC6869BDE8F5
:10892000704010F0E9B995F820100029EAD1A16B48
:10893000511A642918D8013B052BEFD801A151F831
:1089400023F000BF8589020089890200AB890200FB
:1089500069890200158902007B8902000023BAE7B9
:10896000A36BD31A642B08D91348A26303F01AFA35
:108970006869BDE8704010F0BFB930462263FEF769
:1089800077FCCBE7E262C9E70C4E304603F01EF8F5
:10899000D6E90121337B307884F88330236884F86A
:1089A0005F00C4E906216362B8E7A262B6E700BFD0
:1089B000D46700202C6700209C680020A866002057
:1089C00070B41F4C1F4B94E80700002503F14806C4
:1089D000A3F8465003C6327003F1680603C642F29C
:1089E0002A41996140F2011159844FF08071C3F816
:1089F0002510012159850521196047F230519960F0
:108A000080201021C3E9040108204FF0FF31C3F892
:108A10001E5083F82950DD85C3F83650DD63C3F856
:108A200042505D87A3F840505860D860196399861A
:108A3000327094E80700883303C31A7070BC704723
:108A4000501D04002C6700202DE9F04F4D4BDFF83E
:108A5000508185B01E46019310F042F9C8F800001D
:108A600016F8010F032113F01FFA474BB342F7D159
:108A7000464ADFF830A1DFF83091002342F00102CE
:108A800002931F460092424E0121F05C13F00CFA53
:108A9000029B0121F05C3F4E13F046FA009B402000
:108AA00098473D4A3D49029B1278D1F8100503EBE7
:108AB00043034FF0A0411A44D1F8101546F8321084
:108AC00006EBC20206EBC301506056F83360D1F8E2
:108AD0000CC00397D1E901321643D1E9040243EAFD
:108AE0000C0343EA020B0643002308E0D8F8000019
:108AF000FDF7B2FD039B0133062B039321DC19F82C
:108B000003305AF82330C3F120020BFA02F226FA9E
:108B100003F0203B10432BFA03F3184300F0010449
:108B20003D4654EA050303AA02A9DFD1D8F80000A4
:108B300003AA02A9FDF7A8FD039B0133062B0393AB
:108B4000DDDD029B124A0021D05C13F0ADF9029BDF
:108B50000133052B029396DD019C14F8010F0021CF
:108B600013F0A2F9084BA342F7D10B4A1378013353
:108B7000DBB2022B84BF084A0023137005B0BDE8A6
:108B8000F08F00BF136000201A600020A0210400B5
:108B90001C600020186600201466002000030050AE
:108BA000D46700202829040014600020224B1A8872
:108BB00042F6AA139A4200D0704730B41F4A137885
:108BC000202B14D8202B20D8DFE803F02C15211FF0
:108BD000151F1F1F151F1F1F1F1F1F1F151F1F1FC3
:108BE0001F1F1F1F1F1F1F1F1F1F1F1F1500402B91
:108BF00001D0802B09D1124B12481B781344352524
:108C0000012400215D700470117030BC70470C4B62
:108C10000C481B7813443525012402215D70047033
:108C20001170F2E7064B07491B781A4429200123EB
:108C300050700B70E9E700BFFE6300202464002041
:108C40003D6400203C64002008B50120FFF71CFEB5
:108C5000BDE80840FFF71ABEF8B5D0E900638768A1
:108C6000BB420446A1EB06061DD08B4294460D463E
:108C70001A4611D033F8020CBCF8007022F8020B2F
:108C8000981E8142626005D0421A981A14F0C4FFFF
:108C9000206830442F80F8BDBCF8001022F8021B79
:108CA00018466260F8BDFDF70FFD20683044F8BD3E
:108CB0002DE9F0470746294E17F8013BD6F800C0CA
:108CC00082B0002B3BD0DFF898806446B14616E0B6
:108CD00030F8022C21F8022B9C42A3EB04027160B5
:108CE000A0EB0200214605D014F096FFD6F800C094
:108CF0000CEB0A0325801C4617F8013BFBB118F862
:108D0000135008EB4303D6E90102002D5B7814BF32
:108D10004FF4007500251D4390420146A0F1020367
:108D2000ADF80650A4EB0C0A0CD0A0422246CFD1DD
:108D300022F8025B726017F8013B002BDFD102B012
:108D4000BDE8F08721460DF106024846FDF7BCFC60
:108D5000D6F800C00CEB0A04CEE700BF086600207E
:108D6000102404002DE9F04342F2A603984297B084
:108D700001F06D8100F2188141F2A613984201F0D2
:108D8000298140F2CF8041F6AB13984201F0FB807D
:108D900040F2828041F6A653984201F0E98048D91A
:108DA00041F6AB63984201F0BE8030D941F6A6731C
:108DB000984201F0418141F6AB73984224D1CD4CE9
:108DC00040F262432168ADF8243009AA2046FFF73B
:108DD00043FF40F25A432168ADF8243009AA2046E7
:108DE000FFF73AFF40F25C432168ADF8243009AA4E
:108DF0002046FFF731FF40F25B432168ADF8243095
:108E000009AA2046FFF728FF17B0BDE8F08341F616
:108E1000AB53984201F0EB8041F6A6639842F3D140
:108E2000B54B93F8AB30002BEED0B448FFF740FFC2
:108E3000EAE741F6AB33984201F059844BD941F649
:108E4000A643984201F0488441F6AB439842DBD1F7
:108E5000A84C09AA216840F262452046ADF824508A
:108E6000FFF7FAFE40F25A432168ADF8243009AA10
:108E70002046FFF7F1FE2168ADF8245009AA2046EC
:108E8000FFF7EAFE40F25C432168ADF8243009AAFE
:108E90002046FFF7E1FEB7E741F2A653984201F002
:108EA000EF8340F27A8341F6A603984201F0DD8316
:108EB00024D941F6AB03984201F0018541F6A6138F
:108EC0009842A1D18C4B93F8AB30002B9CD08C48AE
:108ED000FFF7EEFE98E741F6AB23984201F05A8483
:108EE00041F6A633984240F09483834B93F8AB301D
:108EF000002B89D08348FFF7DBFE85E741F2A663AC
:108F0000984201F01B8441F2A67398427FF47CAF33
:108F1000794B93F8AB30002B3FF476AF7A48FFF7EC
:108F2000C7FE71E740F6AB23984201F05A8440F245
:108F3000A58240F6A663984201F0AD8240F26182BC
:108F400040F6AB73984201F0468377D941F2A6030D
:108F5000984201F0358341F2AB0398427FF454AF5D
:108F6000644C40F262432168ADF8243009AA2046DF
:108F7000FFF772FE40F25A452168ADF8245009AA65
:108F80002046FFF769FE216809AA40F25B432046AC
:108F9000ADF82430FFF760FE2168ADF8245009AA2F
:108FA0002046FFF759FE2FE743F6AB33984201F016
:108FB000378340F2E58044F2A623984201F0F5821F
:108FC00040F2A48044F2AB53984201F06C8578D90A
:108FD00046F6A613984201F05D8542D946F6AB13DA
:108FE000984201F0878546F6AB2398427FF40CAF98
:108FF000404C09AA216840F262432046ADF8243073
:10900000FFF72AFE216809AA40F259432046ADF82D
:109010002430FFF721FE216809AA40F25F43204671
:10902000ADF82430FFF718FE40F25E432168ADF83A
:10903000243009AA2046FFF70FFEE5E640F6AB63B1
:10904000984201F0AE8440F6A67398427FF4DCAEFD
:10905000294B93F8AB30002B40F0EA84FDF7D8FFA2
:10906000D2E646F6A603984201F0008246F6AB032C
:1090700098427FF4C9AE1F4C09AA216840F26243AE
:109080002046ADF82430FFF7E7FD216809AA40F239
:1090900059432046ADF82430FFF7DEFD216809AAC8
:1090A00040F25D432046ADF82430FFF7D5FD40F295
:1090B0005C432168ADF8243009AA2046FFF7CCFDB7
:1090C000A2E644F2A643984201F0C68140F28080B5
:1090D00044F2AB43984200F0018744F2A653984211
:1090E0007FF492AE044A92F8AB3083F0010382F829
:1090F000AB3089E608660020D4670020881E040093
:10910000541E0400701E0400381E040043F6A673AB
:10911000984200F08C8540F26F8344F2AB03984292
:1091200000F05E8540F20E8244F2A613984200F0F1
:109130004B8544F2AB1398427FF466AECC4C09AA3F
:10914000216840F26245204640F25A46ADF824506C
:10915000FFF782FD2168ADF8246009AA2046FFF7D9
:109160007BFD2168ADF8246009AA2046FFF774FD55
:109170002168ADF8245009AA2046FFF76DFD43E6AB
:1091800042F2AB63984200F0F88440F2DD8042F690
:10919000AB63984200F0CA8440F2A08043F6A62355
:1091A000984201F0808340D943F6AB23984201F006
:1091B000538343F6A63398427FF426AEAD4B93F823
:1091C000AB30002B3FF420AEAB48FFF771FD1BE640
:1091D00044F2A633984201F0998344F2AB339842AB
:1091E00051D1A34C09AA216840F262432046ADF850
:1091F0002430FFF731FD40F25A432168ADF82430A6
:1092000009AA2046FFF728FD40F25D452168ADF828
:10921000245009AA2046FFF71FFD2168ADF824500D
:1092200009AA2046FFF718FDEEE543F2AB6398422A
:1092300000F0738743F2AB7398427FF4E5AD8C4C3A
:1092400009AA216840F262452046ADF82450FFF794
:1092500003FD40F25A432168ADF8243009AA2046A4
:10926000FFF7FAFC2168ADF8245009AA2046FFF761
:10927000F3FC40F25E432168ADF8243009AA204691
:10928000FFF7EAFCC0E544F2AB2398427FF4BCADA3
:10929000774C09AA216840F262432046ADF8243099
:1092A000FFF7DAFC216809AA40F25A432046ADF8DC
:1092B0002430FFF7D1FC216809AA40F25D43204623
:1092C000ADF82430FFF7C8FC40F25B432168ADF8ED
:1092D000243009AA2046FFF7BFFC95E542F6AB23F0
:1092E000984200F0F38651D942F6AB43984200F021
:1092F000978742F6AB5398427FF486AD5C4C09AA3F
:10930000216840F262432046ADF82430FFF7A4FC08
:10931000216809AA40F259432046ADF82430FFF7EE
:109320009BFC216809AA40F25D432046ADF8243039
:10933000FFF792FC40F25C432168ADF8243009AAA3
:109340002046FFF789FC5FE542F2AB33984200F01C
:109350003A8740F2248242F2A653984200F02787CF
:1093600021D942F2AB53984200F0FC8642F2A66348
:1093700098427FF449AD3F4B93F8AB30002B40F05F
:10938000538342F2A660FDF76DFF3DE542F2AB73F9
:10939000984200F0748642F6A613984240F062822A
:1093A00012F068FC30E542F2A643984200F05B867A
:1093B00042F2AB4398427FF427AD2D4C09AA2168B5
:1093C00040F262432046ADF82430FFF745FC40F2FE
:1093D0005A432168ADF8243009AA2046FFF73CFC27
:1093E00040F259452168ADF8245009AA2046FFF7FC
:1093F00033FC2168ADF8245009AA2046FFF72CFC65
:1094000002E540F6AB43984200F0428356D940F65D
:10941000A653984201F0BA8240F6AB5398427FF4CB
:10942000F3AC134C09AA216840F262432046ADF820
:109430002430FFF711FC216809AA40F25943204665
:10944000ADF82430FFF708FC216809AA40F2614317
:109450002046ADF82430FFF7FFFB40F25E43216861
:10946000ADF8243009AA2046FFF7F6FBCCE400BF94
:1094700008660020D4670020381F040040F2A6735D
:10948000984201F07F8240F2048140F6A613984290
:1094900001F06D8228D940F6AB13984201F0D382D7
:1094A00040F6A62398427FF4AFACCB4B93F8AB3099
:1094B000002B40F0B582FDF7C5FDA5E440F6AB33C7
:1094C000984201F0998240F6A643984240F01681F6
:1094D000C14B93F8AB30002B40F09E820320FDF788
:1094E00061FDFDF7A7FD8FE440F6A603984201F069
:1094F0007F8240F6AB03984240F0C581B74C40F202
:1095000062432168ADF8243009AA2046FFF7A4FB86
:1095100040F25A452168ADF8245009AA2046FFF7C9
:109520009BFB2168ADF8245009AA2046FFF794FB65
:109530004FF48C632168ADF8243009AA2046FFF768
:109540008BFB61E443F6AB7398427FF45DACA34CB4
:1095500009AA216840F262432046ADF82430FFF7A3
:109560007BFB216809AA40F25A432046ADF824301B
:10957000FFF772FB216809AA40F259432046ADF873
:109580002430FFF769FB4FF48C632168ADF8243079
:1095900009AA2046FFF760FB36E441F2A633984261
:1095A00000F0F98745D941F2AB33984200F0CC87FF
:1095B00041F2A64398427FF427AC874B884A93F840
:1095C000AB30002182F82E10002B3FF41DAC834CF1
:1095D0008448FFF76DFB28252168ADF8245009AABF
:1095E0002046FFF739FB8048FFF762FB2168ADF8A2
:1095F000245009AA2046FFF72FFB7C48FFF758FBB1
:109600002168ADF8245009AA2046FFF725FBFFF793
:10961000FBBB41F6A62398427FF4F6AB6E4B93F862
:10962000AB30002B3FF4F0AB7148FFF741FBFFF785
:10963000EBBB41F2A623984200F0628741F2AB23D4
:1096400098426AD1654C09AA216840F262432046DB
:10965000ADF82430FFF700FB216809AA40F25A4315
:109660002046ADF82430FFF7F7FA216809AA40F246
:109670005B432046ADF82430FFF7EEFA40F25C433E
:109680002168ADF8243009AA2046FFF7E5FAFFF774
:10969000BBBB40F2AB53984200F00D8767D940F254
:1096A000A663984200F0018740F2AB6398427FF4D2
:1096B000ABAB4A4C40F262432168ADF8243009AAB2
:1096C0002046FFF7C9FA40F25A452168ADF8245008
:1096D00009AA2046FFF7C0FA2168ADF8245009AA6C
:1096E0002046FFF7B9FA40F25E432168ADF8243016
:1096F00009AA2046FFF7B0FAFFF786BB40F6A6336B
:1097000098427FF481AB344B93F8AB30002B3FF49D
:10971000D2AE3848FFF7CCFACDE641F2AB1398420F
:109720007FF472AB2D4C09AA216840F262432046B7
:10973000ADF82430FFF790FA40F25A432168ADF8B3
:10974000243009AA2046FFF787FA40F25B452168DA
:10975000ADF8245009AA2046FFF77EFA2168ADF83B
:10976000245009AA2046FFF777FAFFF74DBB40F2D5
:10977000AB43984200F0248640F2A653984240F052
:10978000DC801748144A90F82A3001214B4080F8B9
:109790002A3082F8AF1082F8AC10FFF735BB42F2E6
:1097A000A623984200F06B8640F2978042F2AB23EA
:1097B000984200F0DE8542F2A63398427FF424AB53
:1097C000054B93F8AB30002B40F03B8142F2A630C2
:1097D000FDF748FDFFF718BBD4670020086600209E
:1097E0002C6700206C1D0400881D0400941D0400DB
:1097F000681E0400E41D040043F6AB53984201F0D8
:10980000918040F2A18043F6A663984200F02F8534
:1098100043F6AB6398427FF4F7AAB74C09AA2168D4
:1098200040F262432046ADF82430FFF715FA40F2CB
:109830005A432168ADF8243009AA2046FFF70CFAF4
:1098400040F259452168ADF8245009AA2046FFF797
:1098500003FA2168ADF8245009AA2046FFF7FCF965
:10986000FFF7D2BA42F2A67398427FF4CDAAA34B77
:1098700093F8AB30002B40F0E08042F2A670FDF789
:10988000F1FCFFF7C1BA40F2AB7398427FF4BCAA77
:10989000994C40F262432168ADF8243009AA204671
:1098A000FFF7DAF940F25A452168ADF8245009AAC9
:1098B0002046FFF7D1F92168ADF8245009AA2046C7
:1098C000FFF7CAF940F25F432168ADF8243009AAD6
:1098D0002046FFF7C1F9FFF797BA42F2A613984264
:1098E00000F0FD8042F2AB13984240D1824C09AAAD
:1098F000216840F262432046ADF82430FFF7ACF90E
:10990000216809AA40F25A432046ADF82430FFF7F7
:10991000A3F9216809AA40F25C432046ADF824303F
:10992000FFF79AF940F25D432168ADF8243009AAA7
:109930002046FFF791F9FFF767BA40F2A643984235
:109940007FF462AAFEF78EFF43F6AB43984200F025
:109950005C8543F6A653984233D1694C237B267825
:10996000032B01F28E81DFE803F080703C3C42F271
:10997000AB0398427FF448AA5F4C09AA216840F2E1
:1099800062432046ADF82430FFF766F940F25A43AF
:109990002168ADF8243009AA2046FFF75DF940F2AE
:1099A0005C452168ADF8245009AA2046FFF754F918
:1099B0002168ADF8245009AA2046FFF74DF9FFF7BA
:1099C00023BA43F6A64398427FF41EAA4B4B93F862
:1099D000AB30002B3FF418AA4A48FFF769F9FFF7AC
:1099E00013BA632E606841F2348113F0D1FF09ADE0
:1099F00002460B4600964449284615F0D3F82846FF
:109A0000FFF756F93C4828230168ADF81C3007AA37
:109A1000FFF722F9FFF7F8B93C48FFF749F95DE590
:109A20003B48FFF745F946E53A48FFF741F9A8E416
:109A30003948FFF73DF9FFF711BB3848FFF738F910
:109A40001BE73748FFF734F9C0E6632E60680296DB
:109A500041F20B8113F09CFF09ADCDE90001314AC1
:109A60002846322115F06AF8C9E7606813F090FFC4
:109A700002460B46A068CDE9022313F089FF09AD29
:109A8000CDE90001284A2846322115F057F8B6E7FB
:109A9000194C09AA216840F262432046ADF82430EF
:109AA000FFF7DAF8216809AA40F259432046ADF8D9
:109AB0002430FFF7D1F8216809AA40F2614320461B
:109AC000ADF82430FFF7C8F840F25D432168ADF8E7
:109AD000243009AA2046FFF7BFF8FFF795B9074BD6
:109AE00093F8AB30002B41F07B8042F2A610FDF7DB
:109AF000B9FBFFF789B900BF08660020D4670020D2
:109B0000A8660020401F0400201D0400EC1D040076
:109B1000DC1D0400001F0400041E0400101F0400CC
:109B2000D01E0400F01C0400D01C0400D84C09AA6C
:109B3000216840F262432046ADF82430FFF78CF8EC
:109B4000216809AA40F259432046ADF82430FFF7B6
:109B500083F8216809AA40F25B432046ADF824301F
:109B6000FFF77AF84FF48C632168ADF8243009AA26
:109B70002046FFF771F8FFF747B9C54C09AA2168DD
:109B800040F262432046ADF82430FFF765F82168C3
:109B900009AA40F25A432046ADF82430FFF75CF89A
:109BA000216809AA40F259432046ADF82430FFF756
:109BB00053F840F25B432168ADF8243009AA2046EF
:109BC000FFF74AF8FFF720B9B24BB3490122002052
:109BD00081F82F0083F8AF2083F8AC20FFF714B989
:109BE000AB4C09AA216840F262432046ADF824300C
:109BF000FFF732F8216809AA40F25A432046ADF82F
:109C00002430FFF729F8216809AA40F25943204679
:109C1000ADF82430FFF720F840F261432168ADF839
:109C2000243009AA2046FFF717F8FFF7EDB8984C43
:109C30009A48DFF86092984E09AD4FF02808FFF778
:109C400037F82168ADF824802A462046FFF704F84B
:109C500093490022284607AF14F0A4FF2846FFF7D7
:109C600027F82168ADF81C803A462046FEF7F4FF3D
:109C70008C496FF05902284614F094FF2846FFF7EC
:109C800017F82168ADF81C803A462046FEF7E4FF3D
:109C90008548FFF70DF82168ADF81C803A4620464C
:109CA000FEF7DAFF09F1600399F982207F4928461F
:109CB00014F078FF2846FEF7FBFF2168ADF81C8002
:109CC0003A462046FEF7C8FF09F13C0399F95E20A9
:109CD0007749284614F066FF2846FEF7E9FF216819
:109CE000ADF81C803A462046FEF7B6FF09F1840322
:109CF00099F9A6206F49284614F054FF2846FEF72C
:109D0000D7FF06F148092168ADF81C803A46204685
:109D1000FEF7A2FF68494A46284614F043FF28464A
:109D2000FEF7C6FF96F8360096F8371096F83820FA
:109D300096F839300093CDE90309CDE90121284691
:109D400096F83A3096F83B205C4914F02BFF2846F1
:109D5000FEF7AEFF96F82F30002B00F03C87DFF8BF
:109D6000748121684A4828233A46ADF81C30FEF732
:109D700073FF53494246284614F014FF2846FEF765
:109D800097FF96F83C0096F83D1096F83E2096F81E
:109D90003F300093CDE90308CDE90121284696F82C
:109DA000403096F84120474914F0FCFE2846FEF763
:109DB0007FFF96F82F30012B00F04687DFF81881DF
:109DC0002168334828233A46ADF81C30FEF744FF9B
:109DD0003D494246284614F0E5FE2846FEF768FF56
:109DE00096F8420096F8431096F8442096F84530CD
:109DF0000093CDE90308CDE90121284696F84630C5
:109E000096F84720314914F0CDFE2846FEF750FF62
:109E100096F82F30022B00F01287282621681C4864
:109E2000ADF81C603A46FEF717FF21681848ADF8F8
:109E30001C603A46FEF710FF3846FDF76BFB9DF8B5
:109E40001D009DF81E109DF81F209DF82030CDE9C3
:109E50000210CDE900321E499DF821309DF82220E4
:109E6000284614F09FFE2846FEF722FF2168084886
:109E7000ADF81A600DF11A02FEF7EEFE21680448F3
:109E8000ADF81A600DF11A02FEF7E6FEFEF7BCBF50
:109E900008660020D46700202C6700200C200400F6
:109EA0002C200400E0180400F41804000819040031
:109EB0001819040028190400402004005020040050
:109EC0008C2004009C200400CC200400DC20040032
:109ED0000C21040094670020B4670020CC4C40F2B1
:109EE00062432168ADF8243009AA2046FEF7B4FE8B
:109EF00040F25A452168ADF8245009AA2046FEF7E1
:109F0000ABFE2168ADF8245009AA2046FEF7A4FE56
:109F100040F259432168ADF8243009AA2046FEF7E3
:109F20009BFEFEF771BFBA4C40F262432168ADF868
:109F3000243009AA2046FEF78FFE40F25A452168D8
:109F4000ADF8245009AA2046FEF786FE216809AA2A
:109F500040F25C432046ADF82430FEF77DFE2168D8
:109F6000ADF8245009AA2046FEF776FEFEF74CBF56
:109F7000A84B93F8AB30002B3EF446AFA648FEF753
:109F800097FEFEF741BFA24C09AA216840F2624346
:109F90002046ADF82430FEF75FFE216809AA40F2A2
:109FA0005A432046ADF82430FEF756FE216809AA30
:109FB00040F25B432046ADF82430FEF74DFE40F200
:109FC0005F432168ADF8243009AA2046FEF744FE1D
:109FD000FEF71ABF8F4B93F8AB30002B40F0F6859D
:109FE0000120FCF7DFFFFDF725F8FEF70DBF884CD9
:109FF00009AA216840F262452046ADF82450FEF7D8
:10A000002BFE40F25A432168ADF8243009AA2046BD
:10A01000FEF722FE2168ADF8245009AA2046FEF77B
:10A020001BFE40F25D432168ADF8243009AA2046AA
:10A03000FEF712FEFEF7E8BE764B93F8AB30002B2E
:10A040003EF4E2AE7548FEF733FEFEF7DDBE714B1F
:10A0500093F8AB30002B40F0AF8542F2A600FDF73D
:10A0600001F9FEF7D1BE6B4B93F8AB30002B40F0FB
:10A07000A88542F2A640FDF7F5F8FEF7C5BE644C90
:10A0800009AA216840F262432046ADF82430FEF769
:10A09000E3FD216809AA40F25A432046ADF8243076
:10A0A000FEF7DAFD216809AA40F259432046ADF8CF
:10A0B0002430FEF7D1FD40F25C432168ADF8243036
:10A0C00009AA2046FEF7C8FDFEF79EBE504C09AA1D
:10A0D000216840F262432046ADF82430FEF7BCFD13
:10A0E000216809AA40F259432046ADF82430FEF712
:10A0F000B3FD216809AA40F25E432046ADF8243042
:10A10000FEF7AAFD40F25D432168ADF8243009AAAC
:10A110002046FEF7A1FDFEF777BE3D4C09AA216857
:10A1200040F262452046ADF82450FEF795FD40F21E
:10A130005A432168ADF8243009AA2046FEF78CFD69
:10A140002168ADF8245009AA2046FEF785FD40F2AB
:10A150005F432168ADF8243009AA2046FEF77CFD54
:10A16000FEF752BE2A4C40F262432168ADF824301B
:10A1700009AA2046FEF770FD40F25A452168ADF865
:10A18000245009AA2046FEF767FD216809AA40F27B
:10A1900059432046ADF82430FEF75EFD2168ADF846
:10A1A000245009AA2046FEF757FDFEF72DBE194B95
:10A1B00093F8AB30002B40F0E08442F2A650FDF75C
:10A1C00051F8FEF721BE124C09AA216840F26245FF
:10A1D0002046ADF82450FEF73FFD216809AA40F261
:10A1E0005A432046ADF82430FEF736FD216809AA0F
:10A1F00040F259432046ADF82430FEF72DFD21688A
:10A20000ADF8245009AA2046FEF726FDFEF7FCBD56
:10A2100008660020D4670020801E0400901E040001
:10A22000BC4C09AA216840F262432046ADF82430B4
:10A23000FEF712FD216809AA40F259432046ADF805
:10A240002430FEF709FD216809AA40F25E4320464A
:10A25000ADF82430FEF700FD40F25C432168ADF814
:10A26000243009AA2046FEF7F7FCFEF7CDBDA94C25
:10A27000A948FEF71DFD28252168ADF8245009AA3C
:10A280002046FEF7E9FCA548FEF712FD2168ADF86F
:10A29000245009AA2046FEF7DFFCA148FEF708FD7E
:10A2A0002168ADF8245009AA2046FEF7D5FC9D4848
:10A2B000FEF7FEFC2168ADF8245009AA2046FEF7FF
:10A2C000CBFC11F03FFC9849024609A814F06AFC47
:10A2D00007AF09A8FEF7ECFC2168ADF81C503A4620
:10A2E0002046FEF7B9FC11F06DFC9049024609A822
:10A2F00014F058FC09A8FEF7DBFC2168ADF81C50EF
:10A300003A462046FEF7A8FC00238949002209A806
:10A3100014F048FC09A8FEF7CBFC2168ADF81C50EE
:10A320003A462046FEF798FC824B93F82E30012BDC
:10A3300000F07684022B00F07184002B00F0628420
:10A340007D4B93F8A730012B00F04F84022B00F0D7
:10A350006984002B7EF458AD7848FEF7A9FC2823C9
:10A3600021686C48ADF81C303A46FEF775FCFEF7E4
:10A370004BBD684C09AA216840F262432046ADF803
:10A380002430FEF769FC216809AA40F25A432046AE
:10A39000ADF82430FEF760FC216809AA40F25C4366
:10A3A0002046ADF82430FEF757FC40F25E432168AA
:10A3B000ADF8243009AA2046FEF74EFCFEF724BD76
:10A3C000544C40F262432168ADF8243009AA20467B
:10A3D000FEF742FC40F25A452168ADF8245009AA24
:10A3E0002046FEF739FC2168ADF8245009AA204622
:10A3F000FEF732FC40F25C432168ADF8243009AA34
:10A400002046FEF729FCFEF7FFBC424C09AA216852
:10A4100040F262432046ADF82430FEF71DFC21686F
:10A4200009AA40F25A432046ADF82430FEF714FC46
:10A43000216809AA40F25D432046ADF82430FEF7BA
:10A440000BFC40F259432168ADF8243009AA20469C
:10A45000FEF702FCFEF7D8BC374B93F8A730012B70
:10A460003EF4D2AC01F04CFDFEF7CEBC3449354889
:10A4700001F088FB334801F0A9FAFEF7C5BC2E4B6A
:10A4800093F8AB30002B40F06C8342F2A620FCF72F
:10A49000E9FEFEF7B9BC284B93F8AB30002B40F037
:10A4A0005883FCF79FFDFEF7AFBC234B012283F8D6
:10A4B000AE20FEF7A9BC174C40F262432168ADF80C
:10A4C000243009AA2046FEF7C7FB40F25A4521680E
:10A4D000ADF8245009AA2046FEF7BEFB2168ADF86E
:10A4E000245009AA2046FEF7B7FB40F25D432168DD
:10A4F000ADF8243009AA2046FEF7AEFBFEF784BC77
:10A500000D4B93F8AB30002B40F02F83FCF750FD40
:10A51000FEF77ABC0866002064180400881804005E
:10A52000AC180400481F0400641F0400781F0400D6
:10A53000CC1804002C670020D4670020FC1F040006
:10A5400075B80200A8660020B94C09AA216840F23B
:10A5500062432046ADF82430FEF77EFB216809AA4D
:10A5600040F25A432046ADF82430FEF775FB2168CF
:10A5700009AA40F25B432046ADF82430FEF76CFB9D
:10A5800040F25D432168ADF8243009AA2046FEF769
:10A5900063FBFEF739BCA74B93F8AB30002B40F0C0
:10A5A000DC82FCF713FDFEF72FBCA24AA24901236F
:10A5B00081F82F3082F8AF3082F8AC30FEF724BC3F
:10A5C0009C4B93F8AB30002B40F0D3820220FCF779
:10A5D000E9FCFEF719BC964C09AA216840F26243D7
:10A5E0002046ADF82430FEF737FB40F2594321688E
:10A5F000ADF8243009AA2046FEF72EFB40F2614553
:10A600002168ADF8245009AA2046FEF725FB2168F1
:10A61000ADF8245009AA2046FEF71EFBFEF7F4BB56
:10A62000834C09AA216840F262452046ADF82450C7
:10A63000FEF712FB216809AA40F25A432046ADF802
:10A640002430FEF709FB216809AA40F25D43204649
:10A65000ADF82430FEF700FB2168ADF8245009AABC
:10A660002046FEF7F9FAFEF7CFBB724B93F8AB30FA
:10A67000002B3EF4C9AB7148FEF71AFBFEF7C4BBD2
:10A680006C4B6D4A93F8AB30012182F82E10002BF1
:10A690003EF4BAAB664C6A48FEF70AFB28252168EF
:10A6A000ADF8245009AA2046FEF7D6FA6548FEF711
:10A6B000FFFA2168ADF8245009AA2046FEF7CCFA2B
:10A6C0006148FEF7F5FA2168ADF8245009AA204642
:10A6D000FEF7C2FAFEF798BB564B93F8AB30002B4F
:10A6E0003EF492AB5948FEF7E3FAFEF78DBB504CAF
:10A6F00009AA216840F262432046ADF82430FEF7F3
:10A70000ABFA216809AA40F25A432046ADF824303A
:10A71000FEF7A2FA216809AA40F25B432046ADF891
:10A720002430FEF799FA40F261432168ADF82430F5
:10A7300009AA2046FEF790FAFEF766BB3D4B3E4A5B
:10A7400093F8AB30022182F82E10002B3EF45CAB64
:10A75000374C3B48FEF7ACFA28252168ADF8245069
:10A7600009AA2046FEF778FA3948FEF7A1FA2168CF
:10A77000ADF8245009AA2046FEF76EFA3548FEF7D8
:10A7800097FA2168ADF8245009AA2046FEF764FA2A
:10A79000FEF73ABB264C09AA216840F262432046E4
:10A7A000ADF82430FEF758FA216809AA40F25A435E
:10A7B0002046ADF82430FEF74FFA216809AA40F28E
:10A7C0005B432046ADF82430FEF746FA4FF48C6325
:10A7D0002168ADF8243009AA2046FEF73DFAFEF7BD
:10A7E00013BB134C09AA216840F262432046ADF81E
:10A7F0002430FEF731FA216809AA40F25943204675
:10A80000ADF82430FEF728FA216809AA40F2614326
:10A810002046ADF82430FEF71FFA40F25B43216872
:10A82000ADF8243009AA2046FEF716FAFEF7ECBA76
:10A8300008660020D46700202C670020401E04001A
:10A84000A01D0400B41D0400941D0400781E040023
:10A85000881D0400C81D0400CA4C09AA216840F2E2
:10A8600062432046ADF82430FEF7F6F9216809AAC4
:10A8700040F25A432046ADF82430FEF7EDF9216846
:10A8800009AA40F25C432046ADF82430FEF7E4F913
:10A8900040F261432168ADF8243009AA2046FEF752
:10A8A000DBF9FEF7B1BAB84B93F8AB30002B40F0B0
:10A8B0004C8143F6A620FCF7D5FCFEF7A5BAB14CB7
:10A8C00009AA216840F262432046ADF82430FEF721
:10A8D000C3F9216809AA40F25A432046ADF8243052
:10A8E000FEF7BAF9216809AA40F25B432046ADF8A9
:10A8F0002430FEF7B1F940F25E432168ADF8243010
:10A9000009AA2046FEF7A8F9FEF77EBA9E4B9F499A
:10A910000122022081F82F0083F8AF2083F8AC20B9
:10A92000FEF772BA974C40F262432168ADF82430CA
:10A9300009AA2046FEF790F940F25A452168ADF881
:10A94000245009AA2046FEF787F9216809AA40F297
:10A950005D432046ADF82430FEF77EF92168ADF85E
:10A96000245009AA2046FEF777F9FEF74DBA864B28
:10A9700093F8A720022A7EF447AA012283F8AD208B
:10A98000FEF742BA11F086F9FEF73EBA7E4B93F815
:10A99000AB30002B40F0D5800020FCF703FBFEF726
:10A9A00033BA784C09AA216840F262432046ADF8D8
:10A9B0002430FEF751F9216809AA40F25A43204693
:10A9C000ADF82430FEF748F9216809AA40F25B434C
:10A9D0002046ADF82430FEF73FF940F25943216894
:10A9E000ADF8243009AA2046FEF736F9FEF70CBA76
:10A9F00011F048F9FEF708BA624C09AA216840F242
:10AA000062432046ADF82430FEF726F9216809AAF2
:10AA100040F259432046ADF82430FEF71DF9216875
:10AA200009AA40F261432046ADF82430FEF714F93C
:10AA300040F25C432168ADF8243009AA2046FEF7B5
:10AA40000BF9FEF7E1B94F4C09AA216840F26243C5
:10AA50002046ADF82430FEF7FFF8216809AA40F23D
:10AA600059432046ADF82430FEF7F6F8216809AACC
:10AA700040F261432046ADF82430FEF7EDF840F295
:10AA80005A432168ADF8243009AA2046FEF7E4F8BD
:10AA9000FEF7BAB93E493F4801F074F83D4800F06E
:10AAA00095FFFEF7B1B9374C09AA216840F262431D
:10AAB0002046ADF82430FEF7CFF8216809AA40F20D
:10AAC00059432046ADF82430FEF7C6F8216809AA9C
:10AAD00040F25D432046ADF82430FEF7BDF840F269
:10AAE00061432168ADF8243009AA2046FEF7B4F886
:10AAF000FEF78AB9234C09AA216840F26243204636
:10AB0000ADF82430FEF7A8F8216809AA40F25943AD
:10AB10002046ADF82430FEF79FF8216809AA40F2DC
:10AB20005B432046ADF82430FEF796F84FF48C6373
:10AB30002168ADF8243009AA2046FEF78DF8FEF70B
:10AB400063B91548FEF7B4F826E71448FEF7B0F8E5
:10AB5000AFE61348FEF7ACF8A3E41248FEF7A8F8F6
:10AB60001FE51148FEF7A4F88FE41048FEF7A0F89F
:10AB7000CCE40F48FEF79CF828E50E48FEF798F85D
:10AB8000FFF71BBB08660020D46700202C6700205D
:10AB900089BB0200A8660020F41D0400241F0400E5
:10ABA000FC1D04002C1E0400BC1E0400201E04001A
:10ABB0000C1E0400F01E04003348FEF779F8FFF77E
:10ABC0004CBA3248FEF774F8FFF753BA3048FEF734
:10ABD0006FF8FFF705BA2F48FEF76AF8FFF7BFB81E
:10ABE0002D48FEF765F8FEF780BF2C48FEF760F8A9
:10ABF000282321682A48ADF81C303A46FEF72CF885
:10AC0000FEF702B92748FEF753F82168ADF81C504B
:10AC10003A462046FEF720F8FFF792BB2248F2E7BB
:10AC20002248F0E72248FEF743F8282321681C4811
:10AC3000ADF81C303A46FEF70FF8FEF7E5B81548B8
:10AC4000FEF736F8FFF7E9B81248FEF731F8FFF7DC
:10AC5000B5B812F09DFE09AD02460B4600961549A7
:10AC6000284613F09FFFFEF7CABE12F091FE09AD11
:10AC7000CDE90001104A2846322113F05FFFFEF7AC
:10AC8000BEBE09ADFEF7BBBE981E0400E01E040068
:10AC9000141E040080200400A81E0400DC1F040011
:10ACA000086600208C1F0400C01F0400A41F0400BD
:10ACB000EC1F0400381D0400081D04002DE9F84FA6
:10ACC000D0E90087334B344E0546A7EB080040100F
:10ACD00003FB00F3B34251D08A469346002B48D081
:10ACE000B3EB430F4FEA4302A1EB080422D9DFF88C
:10ACF000B090484611F082FF064681443319DBF8D4
:10AD00000000DBF80410BBF808203051002C59601B
:10AD10001A8113DCA7EB0A070A34002F344422DC23
:10AD20003C44B8F1000F15D1C5E90064C5F808909E
:10AD3000BDE8F88F2ABB91461646DFE7224641461A
:10AD40003046A7EB0A0712F067FF0A34002F34449D
:10AD500009DC3C44404611F061FFC5E90064C5F8D8
:10AD60000890BDE8F88F51463A46204612F046FF5B
:10AD7000D6E7A1EB08044FF00A09BAE70748FDF748
:10AD80006FFDB24228BF32464FF00A0909FB02F9B3
:10AD9000AFE700BFCDCCCCCCCCCCCC0CE8120400BF
:10ADA000F8FFFF7F2DE9F041D0E901370668BB428B
:10ADB00084B00446A1EB060838D08B420D461646F7
:10ADC00026D01A46306852F80ACD7168576836891D
:10ADD000C3F800C05F6012891A8101AB03C36068C9
:10ADE0001E80A0F10A0200F10A039542636004D0BC
:10ADF000521B801A294612F00FFF01AB03CB1B88B0
:10AE00002B81286069602068404404B0BDE8F0816F
:10AE10001268716859601A6032891A8143680A336E
:10AE200043602068404404B0BDE8F081FFF746FF6E
:10AE30002068404404B0BDE8F08100BF2DE9F04136
:10AE40008B4C86B0FBF71AFE2388002B40F09180D4
:10AE5000884C238833B140F2A542934200F0BF8072
:10AE600000232380844DD5E9002393426AD0834A8E
:10AE7000834C12788DF80D2000268DF80C608DF82B
:10AE80001260CDF80E60ADF8146033F8027C33F830
:10AE9000028D6B6021687FBA204603AAADF80C7062
:10AEA000FFF780FF6B6833F8023C43454FEA1820F8
:10AEB00000F08B80D4E900739F4248D053F80A0D0C
:10AEC000704D59686A46164603C695F8A71018894A
:10AED00030800129636000F09C80022957D000294E
:10AEE0004CD09F4212D0684C2A68237823B96B68F3
:10AEF000D31AB3F57A7F06D9644B6A601878FCF7E9
:10AF00009FFB0023237006B0BDE8F0815B4B95F8F2
:10AF1000A7201B788DF80D30012A4FF000038DF823
:10AF200012308DF80C30CDF80E30ADF8143065D0FD
:10AF3000022A58D0002AD6D1394603AA5048FFF732
:10AF400031FFD0E74E4CD4E900739F42B6D1504B4D
:10AF50001C784CB34B4D95F8A730012B7ED0022BBB
:10AF600075D0002BBFD14B4A45483946FFF71AFF31
:10AF7000B9E7FDF71BFE0023238069E71946404827
:10AF8000FFF710FFD4E900739F42ACD1BEE707CAB8
:10AF9000FCF758FB404BD86840000DF0ADFED4E9FB
:10AFA00000739F429FD1B1E73C4E3088002849D1C1
:10AFB0003B4C208888B3334D95F8A730012B3ED009
:10AFC000022B39D0002323808DE78DF80C002168F7
:10AFD0008DF80D6003AA2046FFF7E4FE6AE73148CA
:10AFE000FDF766FE3CE706AB13E90700FCF72AFB1A
:10AFF000294BD86840000DF07FFE74E706AB13E9DB
:10B00000070001F03FF8244BD86840000DF074FEB3
:10B0100069E707CA01F036F8BCE7234C194D2088D0
:10B0200000283FF460AF95F8A730012B1DD0022B0C
:10B03000C8D1FCF743FBC5E7FCF758FBC2E701F0BA
:10B0400033F8BFE7FDF78EFE0E4D34804BE7114B12
:10B05000186859681A89FCF7F5FA44E70D4B186827
:10B0600059681A8901F00EF83DE701F029F8A9E7BF
:10B07000FE63002052640020086600209421040032
:10B08000FC650020D467002000640020DA63002003
:10B090003C640020246400202C6700204A640020C7
:10B0A000606400205C1D04005464002008B5FDF7B6
:10B0B000CBFCFFF7C3FEFBF701FB0D4BD9681A6809
:10B0C000884238BF084693F8A710D86082428CBFE8
:10B0D000101A002031B1022908D1BDE80840012131
:10B0E00000F03ABFBDE8084000F036BF08BD00BF21
:10B0F000D4670020F8B51C4F1C4D1D4C1D4E384622
:10B1000011F03EFE2A461C49384612F0CFFC20467C
:10B1100011F036FE2A4618492046184C12F0C6FC9B
:10B120001749184804F0E8FB32462146164800F05B
:10B1300071FD324621461548FBF782FA144800F0AB
:10B14000BFFB1448144900242A46C0E90044846027
:10B1500012F0ACFC114812490460C0E901442A46CF
:10B16000BDE8F84012F0A2BC946800200060002006
:10B17000C0660020D467002031CD03002C6700207A
:10B18000D8A10020C86600209C680020906800209C
:10B19000A86600200866002031660200FC650020D9
:10B1A0009188020008B50A490A4804F07DFA084966
:10B1B0000948012204F0F2FD00B908BD074906481C
:10B1C000A82204F0A5FABDE80840034804F04EBCEC
:10B1D00038210400D8A10020C86600202C67002078
:10B1E00038B52D480AF074F82C492D48002204F097
:10B1F000D5FD2B4804F062FEF8B12A492848A82260
:10B2000004F0BEFB264804F031FC264C2378052BC5
:10B210002CD1254C00256582A4F8B05084F8B2509A
:10B2200084F8AB500DF05CFD84F8A750C4E9000031
:10B23000C4E90255C4F8AC5038BDFDF7C1FB17494D
:10B24000154804F031FA15491548012204F0A6FD0D
:10B250000028DAD013491248124CA82204F058FAF8
:10B260000F4804F003FC2378052BD2D0FDF7A8FB90
:10B270000A49094804F018FA08490948012204F06B
:10B280008DFD0028C5D02146A822054804F040FACB
:10B29000034804F0EBFBBCE7D8A1002038210400F0
:10B2A000C86600202C670020D467002070B54E4C83
:10B2B00082B000F0AFFE00F07DFD00F005FEFFF76C
:10B2C0008FFF94F82A30002B51D194F82530002BB1
:10B2D00076D194F82730002B7AD10123434A616854
:10B2E00043480093002311F053FD94F82F00414D83
:10B2F000FCF76AFA00F0A2F9EE1D15F8010B002127
:10B3000010F0D2FDB542F8D13B4DAE1D15F8010B42
:10B31000022110F0C9FDB542F8D1FCF705F9344817
:10B3200011F04AFD354BD3E900218A4218BF5A601B
:10B33000334BD3E900218A4218BF5A6094F8203079
:10B34000002B4DD194F82130002B46D12D4800F030
:10B350006DFC2C4800F084FC2B4B00932B492C48AF
:10B3600000234FF4806211F095FC02B070BD2948B3
:10B370004FF4E13111F05AF92749264810F0C6FE82
:10B380002649244810F0C2FE2549224810F0BEFE8E
:10B390002449204810F0BAFE23491E4810F0B6FE9A
:10B3A00022491C4810F0B2FE21491A4810F0AEFEA6
:10B3B0002049184810F0AAFE94F82530002B88D0B8
:10B3C00094F8260000F07CFD94F82730002B84D000
:10B3D00094F8280000F076FD7FE7FBF733FFB5E730
:10B3E000A07E00F023FDADE72C670020ADB0020089
:10B3F00094680020146000201C6000200866002073
:10B40000FC6500209C68002044210400A188020003
:10B410002CBF002084BD0020381904007C190400D2
:10B42000C0190400041A0400481A04008C1A04000D
:10B4300074140400C8130400F0B5784D8FB000F008
:10B4400053FD95F82A30E3B995F82E60012E1ED0F1
:10B45000022E00F0AE80002E00F09580704C94F823
:10B46000AD308BBB94F8AF30002B7DD194F8AE306B
:10B4700013BB94F8AC302BBB28690DF03DFC0FB02A
:10B48000F0BDFCF7DFFC95F82E60012EE0D100F056
:10B49000EBFD634C002800F0938094F8A730012B5B
:10B4A000DDD0FCF7C1F8002840F0B280FCF79AF834
:10B4B000012384F8A730D2E75A4804F04DF801235D
:10B4C00084F8AC30FDF7CEF90026FCF7B7F831462A
:10B4D0001D2206A8059612F0B9FB95F82F305249A7
:10B4E000183305A835F8132013F05CFB05A94D4867
:10B4F00004F0DAF895F82F204C4902EB420205EBF4
:10B50000420205A892F83B7092F83A30039792F8FD
:10B510003970029392F83830CDE9003792F837301D
:10B5200092F8362013F03EFB05A93E4804F0BCF823
:10B5300095F82F203E493620062313FB02031832CC
:10B54000E8184FF6FF7725F81270EE50868095F8D0
:10B550002F3007C905EB4313483303C301211A7089
:10B5600084F8AF1084F8AC1032492E4804F09CF8EF
:10B5700030493148012204F011FC00283FD100235A
:10B5800084F8AF3072E700F06FFD38B3244C94F8C4
:10B59000A730012B3FF463AFFCF746F800283AD1FF
:10B5A000FCF720F8012384F8A7300DF099FBE06048
:10B5B00055E7FCF739F81A4C28B184F8A7604EE734
:10B5C00084F8A7004BE794F8A730002B3FF447AF6F
:10B5D000FBF7AAFF002384F8A73040E7FCF724F824
:10B5E0000F4C94F8A7300028EFD0022B3FF437AF70
:10B5F000022384F8A7300DF073FBE0602FE70749C2
:10B600000D48A82204F084F80B4804F02FFAB6E79E
:10B61000FCF714F84AE7FCF711F8C1E72C670020A3
:10B62000D4670020D8A10020482104006421040030
:10B63000501D040038210400C86600202DE9F041A7
:10B64000AAB01049104EDFF84480A822684612F0D4
:10B65000D5FAADF10407A6F6DC043D46204655F8C0
:10B66000043F0022012104F5A274FAF74DFFB44211
:10B67000F4D104F6DC06464507F11C07EBD12AB0ED
:10B68000BDE8F081A821040088710020B0A6002048
:10B6900010B55D4C00212046FAF726FF04F5A27094
:10B6A0002321FAF721FF04F522702421FAF71CFF69
:10B6B00004F573702521FAF717FF04F5A26026211F
:10B6C000FAF712FF04F254602721FAF70DFF04F590
:10B6D000F3602D21FAF708FF04F6DC003021FAF7B9
:10B6E00003FF04F522601C21FAF7FEFE04F6643025
:10B6F0001821FAF7F9FE04F6A8400C21FAF7F4FE37
:10B7000004F6EC501221FAF7EFFE04F573601321F2
:10B71000FAF7EAFE31213D48FAF7E6FE30213C48CF
:10B72000FAF7E2FE0B213B48FAF7DEFE04F5A250E1
:10B730000D21FAF7D9FE0E213748FAF7D5FE0F2171
:10B740003648FAF7D1FE33213548FAF7CDFE3421D9
:10B750003448FAF7C9FE00213348FAF7C5FE112133
:10B760003248FAF7C1FE10213148FAF7BDFE04F560
:10B77000F3503621FAF7B8FE37212E48FAF7B4FE17
:10B7800038212D48FAF7B0FEE1212C48FAF7ACFE3B
:10B7900000212B48FAF7A8FE00212A48FAF7A4FE58
:10B7A00050212948FAF7A0FE52212848FAF79CFEBA
:10B7B00004F522504F21FAF797FE51212448FAF759
:10B7C00093FEE2212348FAF78FFEE0212248FAF7A0
:10B7D0008BFEE3212148FAF787FE4B212048FAF738
:10B7E00083FE2C211F48FAF77FFE28211E48FAF716
:10B7F0007BFE4E211D48FAF777FEBDE810401C483D
:10B800000021FAF771BE00BFAC680020207900204B
:10B81000647A0020A87B0020307E0020747F002006
:10B82000B8800020FC810020408300208484002018
:10B83000C88500205088002094890020D88A0020E4
:10B840001C8C0020608D0020A48E0020E88F00203A
:10B8500070920020B4930020F89400203C960020C1
:10B8600080970020C4980020089A00204C9B00205C
:10B87000909C0020032A03D8DFE802F01D18030380
:10B880007047B1F5616F38BFA1F6E4410B4BA1F5EC
:10B890006161C1EB0111A3FB01235B090A33DBB238
:10B8A000642B0370ECD9642303707047A1F6282140
:10B8B0008908017070473223037070471F85EB5170
:10B8C000044A42610022C0E901220261027002734F
:10B8D000704700BF75B8020030B42E4A2E4982B0BE
:10B8E0000023012009240DF10605C1F8F005C1F877
:10B8F0000005C1F81435C1F81035C2F81435C2F886
:10B900001035C2F82435C2F82035C2F83435C2F8F3
:10B910003035C2F84435C2F84035C2F85435C2F863
:10B920005035C2F86435C2F86035C2F87435C2F8D3
:10B930007035C1F818350A46C1F81445C1F81045EC
:10B94000C1F82C56C1F830060860D2F80031002B3F
:10B95000FBD0002001231049C2F800015360D1F848
:10B960000431002BFBD0002001230B4AC1F8040155
:10B970008B60D2F81431002BFBD0BDF906000023F8
:10B9800020EAE070C2F81431C2F8003502B030BCD1
:10B99000704700BF107000400070004010B50446B2
:10B9A000022010F085F90C2010F07CF901200DF038
:10B9B000A3F91F2010F0ACF92061002010F078F9F5
:10B9C0000A2010F06FF9206910BD00BF70B5027B2E
:10B9D00082B00446032A00F2CA80DFE802F09287B0
:10B9E00064026449644800230126C0F8F0654FF4FE
:10B9F0008065C0F80065C0F81435C0F81035C1F88E
:10BA00001435C1F81035C1F82435C1F82035C1F816
:10BA10003435C1F83035C1F84435C1F84035C1F886
:10BA20005435C1F85035C1F86435C1F86035C1F8F6
:10BA30007435C1F870350D230DF10601C0F81855A5
:10BA4000C0F814350546C0F81035C0F82C16C0F8FB
:10BA500030660660D5F80031002BFBD000200123B2
:10BA60004549C5F800016B60D1F80431002BFBD0CB
:10BA7000002501234048C1F804518B60D0F81431EF
:10BA8000002BFBD00023C0F814311946C0F8003554
:10BA9000236163606369204698472178374802F044
:10BAA000E9FD02B070BD022010F002F90C2010F088
:10BAB000F9F801200DF020F91F2010F029F920617C
:10BAC000002010F0F5F80A2010F0ECF8D4ED047A1C
:10BAD0009FED2B7A227BF8EE677A67EE877AFCEE91
