:020000022000DC
:10600000000004201D6E03005D6E030015E2030016
:10601000616E0300636E0300656E03000000000004
:1060200000000000000000000000000089C703001D
:10603000696E030000000000A9C703006D6E030035
:10604000F9C803006F6E03006F6E03006F6E0300EC
:106050006F6E03006F6E03006F6E03006F6E0300C0
:106060006F6E03006F6E03006F6E03006F6E0300B0
:106070006F6E03006F6E03006F6E03006F6E0300A0
:106080006F6E0300E1C403006F6E03006F6E0300C8
:106090006F6E03006F6E030081F102006F6E0300EC
:1060A0006F6E03006F6E03006F6E03006F6E030070
:1060B0006F6E03006F6E0300000000000000000020
:1060C0006F6E03006F6E03006F6E03006F6E030050
:1060D0006F6E03006F6E03006F6E0300B1DD03008F
:1060E0006F6E03006F6E03006F6E03000000000010
:1060F000000000006F6E0300000000006F6E0300E0
:10610000000000000000000000000000000000008F
:10611000000000000000000000000000000000007F
:10612000000000000000000000000000000000006F
:10613000000000000000000000000000000000005F
:10614000000000000000000000000000000000004F
:10615000000000000000000000000000000000003F
:10616000000000000000000000000000000000002F
:10617000000000000000000000000000000000001F
:10618000000000000000000000000000000000000F
:1061900000000000000000000000000000000000FF
:1061A00000000000000000000000000000000000EF
:1061B00000000000000000000000000000000000DF
:1061C00000000000000000000000000000000000CF
:1061D00000000000000000000000000000000000BF
:1061E00000000000000000000000000000000000AF
:1061F000000000000000000000000000000000009F
:10620000F1EE103A43F08073E1EE103A704700BFB0
:1062100010B5054C237833B9044B13B10448AFF3E0
:1062200000800123237010BDB46300200000000033
:106230008044040008B5034B1BB103490348AFF386
:10624000008008BD00000000B86300208044040006
:10625000154B002B08BF134B9D46A3F5803A002138
:106260008B460F461348144A121A18F0BDFE0F4B06
:10627000002B00D098470E4B002B00D098470020F1
:10628000002104000D000D48002802D00C48AFF397
:10629000008018F03FFE2000290017F01BFE18F0C8
:1062A00013FE00BF000008000000042000000000F2
:1062B00000000000B46300202CCC0020000000008F
:1062C0000000000041F2A873984200F00B8117D83B
:1062D00040F6A763984200F0038140F2898041F2C2
:1062E000A733984200F0EF8076D941F2A753984245
:1062F00000F0DB8041F2A763984219D1E520704796
:1063000042F2A703984200F0E88030D942F2A75346
:10631000984200F0DA801BD942F2A773984200F04D
:10632000C18043F6A723984209D14FF40E707047FD
:1063300041F2A74398420CBFE3200020704742F28D
:10634000A76240F2272390420CBF184600207047F6
:1063500042F2A733984200F0B1801AD942F2A74224
:1063600040F2252390420CBF18460020704741F6AA
:10637000A843984200F0AC8021D941F6A763984227
:1063800000F08D8041F6A77398420FD14FF4C97089
:10639000704742F2A713984276D042F2A72240F209
:1063A000232390420CBF18460020704741F6A752A5
:1063B00040F2831390420CBF18460020704741F60C
:1063C000A823984277D024D941F6A83398420CBF2D
:1063D0004FF4AA700020704741F2A713984268D08A
:1063E00023D941F2A72398420CBFE0200020704738
:1063F00040F6A70398426ED02DD940F6A7339842B5
:1064000055D01DD940F6A74398420CBFC8200020A4
:10641000704741F6A80398423FD041F6A81398422E
:106420000CBF4FF4A9700020704740F6A773984244
:1064300031D041F2A70398420CBFB620002070472C
:1064400040F6A713984224D040F6A72398420CBFE9
:10645000C6200020704740F2A763984231D0B0F5C3
:10646000D56F06D340F2A77398420CBF6F2000206F
:10647000704740F2A743984209D040F2A753984290
:106480000CBF31200020704740F22120704730209F
:1064900070470C207047B5207047EA2070474FF4D2
:1064A000C570704740F22A207047E4207047C7202B
:1064B0007047B720704740F2531070474FF409708F
:1064C000704732207047E220704740F22620704724
:1064D00040F255107047702070474FF4CA707047F3
:1064E000CD207047E920704738B504460D460C3082
:1064F00000F090FDC5F3074205232583C4F81A2058
:106500002360204638BD00BFF0B59DB2012D42D1B9
:1065100071B34C1EE4B2C4EB041402EB42056400F8
:1065200004EB4504A0F11E0600F1180C044406EB30
:106530004506E646570001E0A6421CD0258B012DFA
:10654000A4F11E04F8D0C1EB01114900174401EB7E
:1065500047070EEB0701C3F307432EF80750C1F8B6
:106560000230BDB1BDE8F04011460C3000F058BD1E
:1065700000F1180C57003A445200C1EB011102EB34
:1065800041010CEB0102C3F3074300202CF801008A
:10659000C2F80230F0BD00F1180E5700D3E700BF7B
:1065A0000C3000F049BD00BF0C3000F065BD00BFED
:1065B00070B5064601F10C000C46154600F090FD42
:1065C000431E042B15D822689A421ED0C5EB051233
:1065D00004EB420203EB430502EB4502236052F851
:1065E000180F60609388238123893060B380304620
:1065F00070BD0023A380E38023816068228930601E
:106600000523B2802360304670BD20F002000128CF
:1066100004D000233380C6F80230F4E7D4F8063003
:10662000012BF6D0606823893060B380EBE700BFB0
:1066300010B50446006808B117F0AEFC204610BD46
:1066400010B4034C034B21601A605DF8044B704793
:10665000606400206464002038B514680B68084941
:106660004FF4A27202FB04F240F6DC05044605FB7F
:10667000032008442146FFF793FF024B1C6038BDFE
:106680000C690020EC63002030B415680B68074CDF
:106690004FF4A27202FB05F240F6DC0505FB032372
:1066A0000146E01830BCFFF77FBF00BF0C69002037
:1066B000014B1880704700BFFC63002030B40024F9
:1066C00060F3070461F30F2409499DF8085008702E
:1066D00062F31744074A9DF80C10157163F31F64A9
:1066E0009DF8103014605171937130BC704700BF39
:1066F0006A640020186400202DE9F04F344A3548C0
:10670000354C00783549364D53782070002483B0DD
:1067100008702C70002B4ED001204FF005094FF06F
:10672000040E032702244B7028700346C846F44623
:106730003E4620464FF0060B92F802A0BAF1000F39
:106740000DD0CB18019323463C46019F287087F853
:1067500001A0304677466646CE46C446D84692F8F3
:106760000390B9F1000F0AD001EB030A2870234609
:1067700030463C4666468AF80190C446774692F811
:1067800004E0BEF1000F07D00B44287083F801E04D
:106790003046234666463C46577927B10B4428705D
:1067A0005F7030462346927912B10B4428705A70BC
:1067B00003B0BDE8F08F4FF004094FF0030E02273D
:1067C0000124C846F4463E4620464FF0050BB3E789
:1067D000186400206A640020DC6300202C64002020
:1067E00045640020014B1868704700BFEC6300202F
:1067F0002DE9F84FD0E900896FF04045A9EB080377
:10680000B5EB630F4BD093465A1006460F46A1EBEB
:106810000804002A41D09A421BD9254D284617F07A
:106820009BFB8246BBF800302AF80430002C05445C
:1068300018DCA9EB07090234B9F1000F544426DC37
:106840004C44B8F1000F1AD1C6E900A4B560BDE808
:10685000F88F3BBB9A461D46002CBBF800302AF847
:106860000430E6DD224641465046A9EB070918F000
:10687000A1FB0234B9F1000F544408DC4C444046FB
:1068800017F08AFBC6E900A4B560BDE8F88F394669
:106890004A46204618F080FBD2E70225BEE70548AD
:1068A00002F078F9AB4228BF2B465D00B6E700BF87
:1068B000FEFFFF7F782604000B1A30B4DD10002D98
:1068C0003ADD138800EBC5050BE044889C420DD0EF
:1068D00084889C420DD0C4889C420DD00830A842C8
:1068E0000DD004889C42F0D130BC7047023030BCDF
:1068F0007047043030BC7047063030BC70470B1A0C
:106900005B10022B12D0032B0AD0012B02D00846B9
:1069100030BC7047138802889A42E5D00846F7E7F2
:10692000138802889A42DFD0023000E01388028880
:106930009A42D9D00230EEE75B10E2E72DE9F04F42
:106940008F4D904FD5E900139942D7E90043A3EB4F
:10695000040218BF6960002A87B04FEA620619DD99
:10696000DFF81C8208E0228823F8022B013E6B60CE
:1069700004F102040CD06968AA688A420B46F2D17D
:1069800022464046FFF734FF013E04F10204F2D1F3
:10699000D7E90043A3427C4B18BF7C601B885BB1E6
:1069A0005A085B1008D0002701375310FFB29AB283
:1069B000002BF9D1BBB200E01F46744A744E126836
:1069C000DFF8DCB1DFF8D491DFF8C8A113824FF013
:1069D0000008A6F6DC0403E004F5A274A64221D068
:1069E0003A46214604A8FFF7E3FDBDF81020ADF8B4
:1069F0000E20002AF0D0D5E901108142DDF81230D6
:106A000079D021F8022B6960012B5BD0022B7AD060
:106A10009DF80E3004F5A274DF2B98BF4FF00108EB
:106A2000A642DDD106F6DC06B345D2D1D9E9004352
:106A30001B1B002B4FEA630616DD514F07E022882F
:106A400023F8022B013E6B6004F102040CD0D5E95F
:106A5000011291420B46F2D122463846FFF7C8FE9A
:106A6000013E04F10204F2D1B8F1000F27D0494FE2
:106A7000D7E900431A1B002A4FEA620619DDDFF846
:106A8000008107E0228823F8022B013E6B6004F1AD
:106A900002040CD0D5E9011291420B46F2D12246F4
:106AA0004046FFF7A5FE013E04F10204F2D1D7E90A
:106AB00000439C42384B18BF7C6000221A8007B00C
:106AC000BDE8F08FD9E900010DF10E024FF000038F
:106AD000FFF7F2FED9F804209042014638D0023187
:106AE0008A4204D0521A18F065FAD9F80410023913
:106AF000C9F8041070E7224801930DF10E02FFF768
:106B000077FE019B80E7DAE900010DF10E024FF0FC
:106B10000003FFF7D1FEDAF8041081427FF45CAF86
:106B2000DAF80830994224D0BDF80E3021F8023B43
:106B3000CAF804109DF80E30EF2B7FF64DAF1648C3
:106B4000F03B0188012202FA03F30B43038043E781
:106B5000D9F80830984206D0BDF80E3021F8023B33
:106B6000C9F8041038E70D480DF10E02FFF740FE9A
:106B700032E70DF10E025046FFF73AFEDAE700BFAA
:106B8000D0630020E063002056640020646400208D
:106B9000E871002038640020146400202064002084
:106BA00010A700202DE9F04F9C4EDFF8AC92DFF8E3
:106BB000AC829B4F9B4C9C4D96E807004B4603C311
:106BC0004FF0000A83B01A80C6F800A0A6F804A00F
:106BD00086F806A0A6F808A088F800A087F800A00C
:106BE000FFF78AFD914B924AB4F800B01B881188D8
:106BF000904A4BEA03030B431380FFF79FFED5E94E
:106C000000218A42A4F800A000F074815346944603
:106C10004FF0010E3CF8020BC0B2A0F1F00AEF28D1
:106C20000EFA0AFA03D94AEA03039BB223806145AC
:106C3000F0D1DFF82CA2DFF82CC2BAF80000BBEBD1
:106C4000030B18BF4FF0010B8CF800B0002840F088
:106C5000338179480190044698F80050387894F8C8
:106C600000B096460AE07419013540EA0C006270E3
:106C7000EDB2062D08BF0025714560D03EF8024BED
:106C8000E2B2A2F1040A5FFA8AFABAF1A00F4FEA5F
:106C9000142CE8D9A53A422A00F25F81DFE812F00D
:106CA0008B0043007C0079007600730043005D0197
:106CB0005D015D015D015D015D015D015D015D01E4
:106CC0005D015D015D015D015D015D015D015D01D4
:106CD0005D015D015D015D015D015D015D015D01C4
:106CE0005D015D015D015D015D015D015D015D01B4
:106CF0005D015D015D015D015D015D015D015D01A4
:106D00005D015D015D015D015D015D015D015D0193
:106D10005D015D015D01B800B200AC00A600A000FD
:106D20009A0094008500BBF1000FA2D1062D434AC2
:106D300008BF0025714514804FF0010B9ED13070C3
:106D40003288B9F800103870019888F800509142E4
:106D500080F800B0338100F08780394B39491B68D7
:106D60001868986001230B70BBF1000F07D073887F
:106D7000B18813430B439BB2002B00F0AC80012081
:106D800003B0BDE8F08F304A148072E72F4A1480B8
:106D90006FE72F4A14806CE7BBF1000F7FF469AFF7
:106DA0002B4A4FF0010B148063E740EA0C0060F0BF
:106DB0007F00C0B25DE7BBF1000F7FF45AAF254AF8
:106DC0004FF0010B148054E740EA0C0040F0400003
:106DD000C0B24EE740EA0C0040F02000C0B248E7E5
:106DE00040EA0C0040F01000C0B242E740EA0C005C
:106DF00040F00800C0B23CE740EA0C0040F004005C
:106E0000C0B236E740EA0C0040F00200C0B230E702
:106E100040EA0C0040F001002BE700BF2C6400208A
:106E2000DC630020DE630020D0630020FC630020D0
:106E30001464002056640020546400205264002032
:106E40006464002044640020FE6300205C64002031
:106E5000686400205A6400204864002045640020D3
:106E60005864002000640020B9F8081099427FF4AB
:106E700074AF7188B9F8023099427FF46EAFB1886F
:106E8000B9F8043099427FF468AF99F80630B179C7
:106E900099427FF462AF324B32491B681C689A6892
:106EA000A21A00207D2A08707FF66AAF01209C603C
:106EB000087003B0BDE8F08FAB68994246D021F866
:106EC000020B696000208A422388AAF800007FF440
:106ED000C0AE18461CE0B379002B7FF450AF224CB3
:106EE00022482349234A019D23802B7003800B8075
:106EF000138044E7DFF888A01F4BBAF80000BBF10D
:106F0000000B18BF4FF0010B83F800B00028D3D15D
:106F10001A4B01931B783A783270308113B1019A81
:106F2000002313703288B9F80030934207D00C4B1D
:106F30000C4A1B6801211868986011701FE7B9F8A6
:106F400008308342F3D14FF0000B92E70C4A0D4812
:106F5000FFF74EFCD5E90021B4E740EA0C0088E6D3
:106F600064640020446400205A64002052640020BD
:106F7000686400205C6400200064002054640020E9
:106F800058640020D06300201A481B4A1B49D0B522
:106F90000024C0E90044846017F056FF1848164AE0
:106FA00016498460C0E9004417F04EFF1548124AA4
:106FB0001249846000260027C0E9006717F044FFEB
:106FC00011480D4A0D498460C0E9004417F03CFFA8
:106FD0000E48094A09498460C0E9006717F034FF88
:106FE0000B48054A8460C0E900440449BDE8D0402C
:106FF00017F02ABFD0630020006000203166020035
:10700000E0630020F063002020640020086400207A
:10701000386400200022C0E901220280827070479B
:107020004B1E012B05D9033901299CBF0123837015
:1070300070470123437070474368012B11D033F030
:10704000020306D103782BB901231A46C0E90121B6
:10705000037070478278002A16BF002301220522A0
:10706000F4E78368CB1AC82BF3D94378002BF0D010
:107070000323C0E901317047D0E90123012A10B48C
:10708000A1EB030319D0C82B03D8F2B95DF8044B68
:10709000704703784BB183783BB104220023C0E9E9
:1070A00001215DF8044B03707047002AEED00023E5
:1070B000C0E901315DF8044B7047447854B9C82BDE
:1070C00003D90378002BF2D0E5E7142BEFD85DF855
:1070D000044B70470223C0E901315DF8044B70474F
:1070E00040687047014B1870704700BF0460002073
:1070F000054A1388C3F580618B42BABF08339BB23F
:107100004FF480631380704708600020044A13889E
:10711000082B86BF083B9BB208231380704700BF33
:1071200008600020084B09481A88018847F6FF7359
:1071300010B4A3EB8204A14202DA92008B189BB236
:107140005DF8044B03807047086000200660002053
:10715000064B074A198813888800B3EB810FC6BF16
:107160001B1A9BB200231380704700BF08600020E9
:1071700006600020024B47F6FF721A80704700BF7E
:1071800006600020044A13780133DBB2032B88BF6A
:1071900000231370704700BF0460002040F63D23B9
:1071A000984238D941F27B4398422BD941F6B863D3
:1071B00098423CD942F6F503984231D943F2333331
:1071C000984239D9B0F5804F49D344F6CC43984220
:1071D00051D945F69913984239D946F266639842D7
:1071E0004ED947F25C53984254D8314BC0EBC000A3
:1071F000C0EBC000A3FB002347F6A07000EBD30058
:1072000080B270472B4B00EB4000A3FB003000091D
:107210006B3880B27047284BA3FB003040087047A2
:1072200000EB4000C010A0F2366080B270478008CA
:10723000A0F26F2080B270471A231D4A03FB00F0B2
:10724000A2FB00300009A0F6424080B2704700EB7C
:1072500080008010A0F57350383880B27047144B0E
:1072600000EBC0004000A3FB0030C008A0F5B25006
:107270000C3880B27047A0F51A50083880B27047B9
:107280000C4BC000A3FB00308008A0F5B5401638B9
:1072900080B27047C0EB0012054BC0EB8200A3FB2D
:1072A000002345F2B00000EBD30080B2704700BF6E
:1072B0001F85EB51CDCCCCCC398EE33870B52C4A40
:1072C0001378032B21D8DFE803F013022318B0F55D
:1072D0007A7F2ED2274B284C1888284D2080FFF724
:1072E0005DFF04F095FFB4F900202B889A420EDA76
:1072F000BDE87040002004F08BBF1F4B1888FFF7DB
:107300004DFFBDE8704004F083BF0023137070BDD3
:107310001B4B1878C8B1174A184D174C10882A888B
:10732000B4F90010861AB1421ADA501880B22080DF
:10733000D5E7114C114DB4F900002B889842C6BF17
:10734000C01A80B200202080C9E70B4C0B4DB4F965
:10735000002029888A4207DD501A80B22080BEE7CB
:10736000002220801A70BAE7012220801A70B6E746
:1073700004600020066000200A60002008600020F1
:107380000560002008B5064808F03AFF04480021CF
:1073900009F002FABDE808400148002108F042BFA8
:1073A0006C640020014B1860704700BF1060002023
:1073B000B0F57A7F10B51ED2164CFF232370164805
:1073C00009F030FA12F03AFE144B1A6843F6A6237D
:1073D0009A4207D1124A1378032B9ABF0133DBB2CA
:1073E0000223137021780C4809F0F4F9BDE810402D
:1073F000094808F031BFB0F5206F03D3054C0023D6
:107400002370DCE7074B034CA3FB00306FEAD0008E
:107410002070D4E70C6000206C6400201060002015
:107420006B640020CDCCCCCC10B5054C204608F0C8
:10743000C7FE2046034A0449BDE8104017F004BDCA
:107440006C64002000600020E50103007ADF7047D3
:10745000034AD37C23F0010343F00603D37470473F
:1074600034680020024AD37C23F00603D3747047AB
:10747000346800200249034A0023CB74138070470C
:107480003468002024660020014B9974704700BFC7
:107490003468002000B5002085B0FFF709F900230B
:1074A000CDE9013300931A4619461846FFF706F94D
:1074B000034AD37C23F01003D37405B05DF804FBBA
:1074C000346800202DE9F04188B0002301460546CC
:1074D00026480293CDE90033CDE90333CDE90533E6
:1074E000079307F041FE20220746694606F0BAF9E5
:1074F0001F4E0621384606F0DFF969461D4818F090
:1075000064FD96F82F404FF0200808FB04644834CF
:1075100021464246684618F079FDE0B9164C3846D7
:1075200006F09EF996F82F30183336F81320824271
:1075300004D026F81300012384F8AF30E37C0F4A0F
:10754000A4F85C5023F0070343F00803E3741580AC
:1075500008B0BDE8F08120464246074C694618F065
:1075600067FD012384F8AF30D9E700BFD09E00202B
:107570008C6700207068002034680020246600209A
:1075800000B583B001460190074A084806F084FF21
:10759000019910B903B05DF804FB054803B05DF82C
:1075A00004EB05F0D9B900BF2C6500202CA1002008
:1075B00090A100200F4BB3F85C20824213D0B3F8A7
:1075C0008020824209D0B3F8A420824204D1012253
:1075D00083F8A61083F8AA207047012283F882104E
:1075E00083F8A9207047012283F85E1083F8A82051
:1075F000704700BF3468002002B97047F0B5041D21
:1076000085B00E4620461749154607F09FF800BB87
:107610001549204607F09AF8C8B10B2D17D93279D1
:10762000F3783578B47971790291CDE900323789F0
:10763000B3787278768929462046FFF73FF83846B6
:10764000FFF736F8094B1E8055EA040305D105B053
:10765000F0BD3078FFF72CF8DAE712F0EFFC044BBE
:10766000D860F4E7F86400208864002058640020A3
:107670003468002010B50349044607F07FFC20461B
:1076800010BD00BFD09E002010B5174C062120462B
:1076900004F0B2FF204604F097FF204640F2C131CB
:1076A00004F0BEFF1149204604F050FF204604F0CC
:1076B0005DFF2046012104F0EDFFF4222046202149
:1076C00004F0DCFF20461E2104F0D6FF20460021F6
:1076D00005F040F82046064904F0D4FF204605494D
:1076E000BDE8104004F0D0BFD0A00020806500208D
:1076F0005174020065740200014805F091B800BFA2
:10770000D0A0002010B50A4C0A480023E37404F00E
:10771000BDFF18B1E37C43F00403E374064807F0AF
:10772000E3FC18B1E37C43F02003E37410BD00BF19
:1077300034680020D0A00020D09E002008B5034867
:1077400007F0D2FC003818BF012008BDD09E0020F1
:10775000024B0348198807F0E5BC00BF24660020EF
:10776000D09E002010B50446064805F07FFD00B904
:1077700010BD054903480C810A22BDE8104005F000
:107780000BBE00BFBC6400202866002030B587B067
:1077900001AB83E807000A49DDF805309DF8095080
:1077A0009DF80A4004939DF80420098805488DF847
:1077B000145004AB8DF8154007F068FE07B030BDDB
:1077C000246600208065002040F6A943984200F01E
:1077D0008B8014D840F6A903984200F0A4802AD9DF
:1077E00040F6A923984200F0A78040F6A9339842BA
:1077F00016D1564B56481988042207F073BE41F241
:10780000A913984276D031D941F2A933984277D062
:1078100041F2A943984221D14E4B10221A70704771
:1078200040F6A913984240F08E80484B484819888A
:10783000012207F057BE40F2A96398426AD025D9C9
:1078400040F2A973984242D1424A404B12781988BB
:107850003F48524252B2002307F078BE41F2A923BA
:10786000984271D13B4B01221A70704740F6A973C0
:10787000984249D01CD941F2A903984228D1334BF0
:10788000334819884FF0FF3207F09CBE40F2A943FD
:1078900098421ED040F2A953984253D12D4B2B4A07
:1078A0001B7811882A485B425BB2002207F04EBE6B
:1078B00040F6A953984211D040F6A963984244D1AA
:1078C000224B234819884FF0FF3207F05DBE704706
:1078D00070471E4B1E48198807F020BE1B4B1C48E2
:1078E0001988102207F0FEBD184B19481988082284
:1078F00007F0F8BD154B16481988012207F062BE43
:10790000144B08221A707047104B11481988012235
:1079100007F03ABE0D4A0F4B118893F900300C481E
:10792000002207F013BE094B0A4A198892F9002079
:107930000748002307F00ABE044B054819880222B5
:1079400007F0D0BD7047704770477047246600202D
:10795000806500201460002010B50A4B0A4C19887D
:1079600082B00191FEF7AEFC01990246204607F075
:10797000ABFD082012F06EFB204602B0BDE81040BF
:1079800007F03CBE24660020806500202DE9F0430E
:10799000DFF8B890264D2748DFF8B480264E274FF1
:1079A00083B007F08DFC48466C4607F045FD2A463B
:1079B0002349484617F048FA204640F2434106F072
:1079C00095FE94E806001F4805F0A6FE204647F6FF
:1079D000021106F08BFE94E80600404605F0D8FB45
:1079E0002A463146404617F02FFA204642F29C3193
:1079F00006F07CFE94E80600384605F0C9FB2A46EE
:107A000031463846104F17F01FFA20464DF2AB5161
:107A100006F06CFE94E80600384605F0B9FB2A46ED
:107A20003146384617F010FA03B0BDE8F08300BFC6
:107A3000006000204065002045D10200BC640020A9
:107A4000F97C02002C650020846400208065002001
:107A5000F464002070B5614B044693E803008AB0DB
:107A6000012204AD85E8030011465D4807F0F4F8F3
:107A70005B48002107F006FB0021594807F0B4FAE3
:107A80005849574807F088FA5548042107F0E0F8AC
:107A90005348012107F0D8F840F2C131504807F0AF
:107AA0001BFB51494E4807F067FB2846FFF7CEFC09
:107AB0004E494F4806F020FC4E494D4806F01EFC4A
:107AC000002C72D108AE4C494C480C2207F032FC15
:107AD0000F224B49494807F029FC484807F02EFC83
:107AE000484807F0CFFB6421464807F0BFFB4648F3
:107AF00004F016F9454B464800241C601C815C606C
:107B000007F08CFD4349424807F0A8FC424805F0C5
:107B1000DBFD2146414805F05BFB012240493F481F
:107B200005F0B0FC21463F4805F052FB01223C49DC
:107B30003C4805F0A7FC21463B4805F049FB3B4982
:107B40003B4806F029FC3A48012106F027FC06AD27
:107B500037486FF0590106F0A3FC2846354906F076
:107B6000CBFD304640F2434106F0C0FD099B009337
:107B700095E80600089B2E4806F096FC50222C48FB
:107B8000A02106F0FFFB2146294806F0F3FB214621
:107B9000274806F009FC2849284804F013FF284923
:107BA000264804F011FF0AB070BD02A80C4907F086
:107BB000E5F90298089008AEC0F307200444BDF828
:107BC0000C209DF80E3006488DF821403146ADF866
:107BD00024208DF8263007F0D7F974E7C426040076
:107BE000D09E002094260400B5750200C5740200E2
:107BF00080A1002075740200A426040040650020C6
:107C0000B4260400349E0020086700202866002067
:107C100080650020897402002C650020F464002037
:107C2000F975020084640020BC64002081750200A4
:107C30002CA1002060390400457C020090A10020A6
:107C40009574020030B589B00023044601462448EB
:107C50000293CDE90033CDE90333CDE90533079332
:107C600007F082FA20220546694605F0FBFD28460A
:107C7000062105F021FE1B486946A0F1600518F0B9
:107C8000A4F91948A5F88040214605F02FFD80B1E0
:107C9000164805F0C5FAD0B9154805F0C1FA90B9F3
:107CA000144805F0BDFAEB7C43F01003EB7409B007
:107CB00030BD21460A4807F035FAEB7C43F010034B
:107CC000EB7409B030BD0A4805F0E4FBE8E707486B
:107CD00005F0E0FB064805F0A3FA0028E0D0F2E743
:107CE000D09E0020946800202C650020F4640020C1
:107CF00084640020BC64002010B5044B044640F8A6
:107D00004C3B04F089FE204610BD00BF54380400EF
:107D100010B50446006808B116F03EF9204610BDC3
:107D20002DE9F0476648674E674C8CB016F046FA6E
:107D3000664816F043FA0FCE6D460FC50FCE0FC53D
:107D400096E80F0007C562492B70204615F08CFBA2
:107D50006049614E204615F087FB204615F064FB14
:107D60005E49204615F080FB0DF1FF3A00275BE0ED
:107D70005B49204615F02AFB0A222946204615F0C9
:107D800041FC3146204615F021FB284615F098FAB3
:107D90000A22C1B2204615F035FC3146204615F0C6
:107DA00015FB0221284615F02DFA284615F088FA11
:107DB0005FFA80F80A224146204615F023FC31463E
:107DC000204615F003FB0321284615F01BFA284630
:107DD00015F076FA5FFA80F949460A22204615F036
:107DE00011FC3146204615F0F1FAB8F1000F40D0F1
:107DF000B9F1010F0CBF3B493B49204615F0E6FAAB
:107E0000012D3CD9092D4BD00A2D44D0202D3BD13A
:107E10003649204615F0DAFA013731462046FFB2DE
:107E200015F022FB2D2F40D01AF8015F00212846C3
:107E300015F0E8F90A223946204615F0E3FB3146F1
:107E4000204615F0C3FA29460A22204615F0DAFB2F
:107E50003146204615F0BAFA1F2D89D9244920460B
:107E600015F0B4FA0A22A5F12001204615F004FC11
:107E700087E72049204615F0A9FA012DC2D81E49EE
:107E8000204615F0A3FAC7E7122DC5D11B4920469D
:107E900015F09CFAC0E71A49204615F097FABBE79F
:107EA0001849204615F092FAB6E7054816F052F93F
:107EB000064816F04FF90CB0BDE8F04704F0D6B90B
:107EC000F4680020F4270400E8BD002020670020AB
:107ED000502704005C270400E427040080270400E6
:107EE000A8270400B8270400C0270400DC270400EA
:107EF000AC270400B0270400C4270400E8270400CE
:107F0000D4270400CC2704002DE9F84FD0E90096CF
:107F10000546A6EB09036FF00040834251D08A4624
:107F20009346002B48D0B3EB430F4FEA430831D9B7
:107F30008046AAEB0904404616F00EF80746804436
:107F40009BF800303B55002C0FDCA6EB0A060134F1
:107F5000002E3C4426DC3444B9F1000F11D1C5E9B0
:107F60000074C5F80880BDE8F88F224649463846B7
:107F7000A6EB0A0617F01EF80134002E3C4411DC73
:107F80003444484616F008F8C5E90074C5F808807E
:107F9000BDE8F88FB8F1000FCADBA1EB0904CAD124
:107FA0004746CDE720465146324616F0F5FF3444A9
:107FB000B9F1000FD3D0E4E7A1EB09044FF00108B9
:107FC000B9E7014800F0E6FD782604000B1A30B44A
:107FD0009D10002D15DD137800EB85050BE044782E
:107FE0009C4229D084789C4229D0C4789C4229D0D4
:107FF0000430A84204D004789C42F0D130BC7047D1
:108000000B1A022B12D0032B04D0012B08D00846E8
:1080100030BC7047137802789A42EFD0013006E006
:10802000137802789A42E9D00846F1E7137802788B
:108030009A42E3D00130F4E7013030BC704702309F
:1080400030BC7047033030BC704700BF38B5384C87
:10805000054601E015F0C4FB204615F0A3FB0028FF
:108060002046F7DC3349324815F0FEF9002D49D09F
:1080700031492F4815F0F8F92E492D4815F0F4F93B
:108080002E492B4815F0F0F92D49294815F0ECF947
:108090002849274815F0E8F92A49254815F0E4F958
:1080A0002949234815F0E0F92849214815F0DCF961
:1080B00027491F4815F0D8F926491D4815F0D4F96D
:1080C00025491B4815F0D0F91A49194815F0CCF983
:1080D0002249174815F0C8F92149154815F0C4F987
:1080E0001449134815F0C0F91E49114815F0BCF9A0
:1080F0001D490F4815F0B8F9BDE838400D490C4846
:1081000015F0B2B919490A4815F0AEF909490848FD
:1081100015F0AAF90949064815F0A6F914490448CA
:1081200015F0A2F91349024815F09EF9ACE700BF1B
:10813000E8BD0020CC2604002428040054280400B4
:10814000342904006829040088290400A4290400B3
:10815000C0290400E8290400042A0400202A04009D
:108160004C2A0400882A0400B02A04008028040055
:10817000AC280400F02804002DE9F04FDFF874A3C8
:10818000DFF87493A3B0D34C204615F00BFB002806
:1081900040F3B58404F06AF8204615F021FBC0B224
:1081A00020385528F0D801A353F820F07587020035
:1081B000898102008981020089810200898102008F
:1081C000898102008981020089810200898102007F
:1081D000898102008981020089810200898102006F
:1081E000898102008981020089810200898102005F
:1081F000898102008981020089810200898102004F
:10820000898102008981020089810200898102003E
:10821000898102008981020089810200898102002E
:10822000898102008981020089810200898102001E
:10823000898102008981020089810200898102000E
:1082400089810200898102008981020089810200FE
:1082500089810200898102008981020089810200EE
:1082600089810200898102008981020089810200DE
:1082700089810200898102008981020089810200CE
:1082800089810200898102008981020089810200BE
:1082900089810200898102008981020089810200AE
:1082A000898102008981020089810200898102009E
:1082B00089810200298702001F870200BF87020010
:1082C000B787020089810200C5870200B3850200DA
:1082D0001D860200898102005D84020089810200FE
:1082E0004983020089810200898102000B83020018
:1082F00089810200318B020089810200898102009C
:108300000583020014F064FE3DE7734C237B25785F
:10831000032B00F21A84DFE813F058026B0204000A
:108320000400632D606840F2ED8316F0FFFC15AC8D
:1083300002460B4600956949204617F001FE21468A
:10834000644815F091F81EE76548664D664E15F0D5
:1083500035FF664815F032FF0020FFF777FE0FCD9E
:1083600009AC05940FC40FCD0FC495E80F0007C4E6
:108370003268237012F0010200F0A5835C480368A4
:1083800013F0010300F09183DFF84881404615F0B7
:1083900009FA0446002840F05C8303F067FF0DF102
:1083A0002303059D069314E0DAE900014FF0000372
:1083B0003246FFF70BFEDAF80410814200F0288203
:1083C00014ABB34206D101350DF15103AB4200F0BD
:1083D0000483069E95F800B016F8017F58460121E7
:1083E00014F010FF3846032114F00CFF584600210A
:1083F00014F048FF384614F063FF01210346584645
:10840000079314F03FFF384614F05AFF002102464C
:108410005846934614F0F6FE3846002114F0F2FE5A
:10842000079B13F0FF0FCBD11BF0FF0FC8D0D9E98A
:1084300000012A46FFF7CAFDD9F804108142B3D1E2
:10844000D9F80830994200F0BC822B780B70D9F82B
:1084500004300133C9F804300124A5E72048214D38
:10846000214E15F0ABFE214815F0A8FE0120FFF7C4
:10847000EDFD0FCD09AC05940FC40FCD0FC495E8E9
:108480000F0007C43268237012F0010200F0298344
:108490001748036813F0010300F0F982DFF8348015
:1084A000404615F07FF9002840F0598203F0DEFEC7
:1084B000D9E90032934218BFC9F80430DAE9003232
:1084C000934218BFCAF804300DF12303059C0693AC
:1084D000002628E0E8BD002008670020683004007E
:1084E000F4680020F427040038660020206700208C
:1084F000346600204066002050660020DAE9000162
:108500004FF000032A46FFF761FDDAF804108142BC
:1085100000F0AA8214ABAB4206D101340DF1510335
:10852000A34200F0E181069D94F800B015F8017FA8
:108530005846012114F066FE3846032114F062FE0D
:108540005846002114F09EFE384614F0B9FE012171
:1085500003465846079314F095FE384614F0B0FED3
:10856000002102465846934614F04CFE384600213E
:1085700014F048FE079B13F0FF0FCBD11BF0FF0F49
:10858000C8D0D9E900012246FFF720FDD9F8043010
:1085900098420146B2D1D9F80830984200F046819D
:1085A00023780370D9F804300133C9F80430012668
:1085B000A4E7A149A14814F057FFA1499F4814F02E
:1085C00053FFA0499D4814F04FFF9F499B4814F06A
:1085D0004BFF9E49994814F047FF9D49974814F076
:1085E00043FF9C49954814F03FFF9B49934814F082
:1085F0003BFF9A49914814F037FF99498F4814F08E
:1086000033FF98498D4814F02FFF97498B4814F099
:108610002BFF8949894814F027FFB4E5934987481F
:10862000934D14F021FF8449844814F01DFF9149B3
:10863000824814F0CBFE904B80481968102214F049
:10864000D5FF8E4B7D4819684FF08054102214F0EE
:10865000E1FFD4F800218A49D4F80431774814F0B6
:1086600053FFD4F810218749D4F80C31734814F023
:108670004BFF8549714814F0F7FE84496F4814F0A8
:10868000F3FE83496D4815AC14F0EEFE6A496B4861
:1086900014F0EAFE002300227E49204617F050FC29
:1086A0002146664814F0E0FE6FF059027A492046F0
:1086B00017F046FC2146614814F0D6FE77495F4822
:1086C00014F0D2FE95F98220754905F16003204629
:1086D00017F036FC2146594814F0C6FE95F95E2085
:1086E000704905F13C03204617F02AFC2146534807
:1086F00014F0BAFE95F9A6206B4905F184032046D3
:1087000017F01EFC21464D4814F0AEFE4A494B4876
:1087100014F0AAFE15F072FE15F08EFD33E500F0A0
:10872000E9FA02F0FFFE2EE56049444814F09CFE91
:108730005F49424814F098FE404814F075FE5D49C8
:108740003E4814F091FE012007F02EFB022007F0B6
:108750002BFB594804F03AF9384814F065FE5749A4
:10876000364814F081FE012007F01EFB022007F0BE
:108770001BFB08E55249314814F076FE51492F4859
:1087800014F072FE50492D4814F06EFE4F492B48EC
:1087900014F06AFE4E49294814F066FE4D492748F8
:1087A00014F062FE2449254814F05EFE4A4923482D
:1087B00014F05AFEE7E4494808F07CF8E3E414F0CA
:1087C0000FFCE0E4FFF7ACFADDE4606816F0AEFA07
:1087D00002460B46A068CDE9022316F0A7FA15ACB5
:1087E000CDE900013E4A2046322117F075FBA6E58F
:1087F000632D6068029540F2908116F097FA15ACEF
:10880000CDE90001374A2046322117F065FB96E595
:10881000DAF80830994200F0DA8033780B70DAF831
:1088200004300133CAF804300124C9E52246484621
:10883000FFF76AFB012661E6BC270400E8BD0020C3
:10884000182E0400542E0400942E0400D02E040090
:108850000C2F0400402F04008C2F0400A82F0400CC
:10886000C42F0400D82F0400F42F04003C2B040074
:1088700034680020542B04006000001064000010D5
:10888000642B0400802B0400AC2B0400D02B0400CC
:10889000F42B0400142C0400282C04003C2C0400AD
:1088A000502C0400602C0400702C0400082B0400E1
:1088B0005C270400142B040090A10020282B040046
:1088C000802C0400C42C0400082D04004C2D04004E
:1088D000902D0400D42D0400102704003CA2002099
:1088E0001830040038300400002E3FF4D9AD984908
:1088F000404614F06BFDD9E90045AC420CD0954ED2
:1089000014F8011B0A22404614F07CFE3146404612
:1089100014F05CFDA542F3D18F49404614F0A4FD4C
:108920008E49404614F052FDDAE90045AC420CD0C5
:10893000884E14F8011B0A22404614F063FE3146AB
:10894000404614F043FDA542F3D18349404614F05C
:108950008BFD404614F026FF00283FF4A7AD804C65
:1089600001E014F03DFF204614F01CFF00282046D3
:10897000F7DCD9E90032934218BFC9F80430DAE9CC
:10898000003278497648934218BFCAF8043014F090
:108990006BFD7549724814F067FD7249704814F018
:1089A00063FD72496E4814F05FFD71496C4814F024
:1089B0005BFD704815F0CEFB6F4815F0CBFBFFF761
:1089C000E2BB2A464846FFF79FFA0124ECE4324610
:1089D0005046FFF799FA0124F2E4002C3FF4D6AC9C
:1089E0005B49404614F0F2FCD9E90045AC420CD09A
:1089F000584E14F8011B0A22404614F003FE31467B
:108A0000404614F0E3FCA542F3D15349404614F02C
:108A10002BFD5249404614F0D9FCDAE90045AC423E
:108A20000CD04C4E14F8011B0A22404614F0EAFD0B
:108A30003146404614F0CAFCA542F3D146494046AF
:108A400014F012FD404614F0ADFE044600283FF439
:108A5000A4AC434C01E014F0C3FE204614F0A2FE87
:108A600000282046F7DC84E7DAF80830994208D07D
:108A70002B780B70DAF804300133CAF80430012681
:108A800048E52A465046FFF73FFA012642E5CAF874
:108A900008300123002400250360384A3849504635
:108AA000CAE9004516F0D0F9F8E4CAF80830012305
:108AB000002400250360314A31495046CAE9004587
:108AC00016F0C2F960E400200021C9E90001C9F8EC
:108AD00008200123294A2A493360484616F0B4F990
:108AE0004CE400200021C9E90001C9F80820012355
:108AF000224A23493360484616F0A6F9C8E423B059
:108B0000BDE8F08F16F012F915AC02460B46009541
:108B10001C49204617F014FA11E416F007F915ACB9
:108B2000CDE90001184A2046322117F0D5F906E4B4
:108B3000BFF34F8F1549164BCA6802F4E062134326
:108B4000CB60BFF34F8F00BFFDE715ACFFF7F7BB5E
:108B5000F02A0400042B0400F82A0400FC2A040074
:108B6000E8BD0020CC26040048270400BC270400F0
:108B700010270400F4680020206700200060002017
:108B8000117D0200803004005030040000ED00E050
:108B90000400FA05FEE700BFBFF34F8F0549064BFF
:108BA000CA6802F4E0621343CB60BFF34F8F00BF8B
:108BB000FDE700BF00ED00E00400FA0532DF70477A
:108BC00041DF704710B50446006808B115F0E4F9BC
:108BD000204610BD70B5434C434DFDF703FEE368DE
:108BE0002668984238BF1846E060FDF7FBFD361A4C
:108BF000FEF788FD2268636AA968D31A8B4247D9B9
:108C0000B6F57A7F8CBF02230023D4E90A01101A3B
:108C1000FB28A2EB010195F8210028BF0323B1F541
:108C2000FA7F88BF0123C0B1216B511A322914D9B0
:108C300095F8203073B30623616B511A322910D98D
:108C4000A36BD31A642B29D830466263FEF736FB38
:108C50006869BDE8704011F0FDB995F82010002951
:108C6000EAD1A16B511A642918D8013B052BEFD822
:108C700001A151F823F000BFB98C0200BD8C0200A5
:108C8000DF8C02009D8C0200498C0200AF8C020038
:108C90000023BAE7A36BD31A642B08D91348A26345
:108CA00003F042FA6869BDE8704011F0D3B930466C
:108CB0002263FEF77DFBCBE7E262C9E70C4E30464C
:108CC00003F046F8D6E90121337B307884F883300D
:108CD000236884F85F00C4E906216362B8E7A262F2
:108CE000B6E700BF346800208C670020FC680020D5
:108CF0000867002070B41F4C1F4B94E80700002544
:108D000003F14806A3F8465003C6327003F1680623
:108D100003C642F22A41996140F2011159844FF091
:108D20008071C3F82510012159850521196047F28A
:108D30003051996080201021C3E9040108204FF0D0
:108D4000FF31C3F81E5083F82950DD85C3F8365033
:108D5000DD63C3F842505D87A3F840505860D86087
:108D600019639986327094E80700883303C31A7038
:108D700070BC7047983004008C6700202DE9F04FDC
:108D80004D4BDFF8508185B01E46019311F056F926
:108D9000C8F8000016F8010F032114F033FA474B0E
:108DA000B342F7D1464ADFF830A1DFF83091002313
:108DB00042F0010202931F460092424E0121F05CF4
:108DC00014F020FA029B0121F05C3F4E14F05AFA95
:108DD000009B402098473D4A3D49029B1278D1F8BC
:108DE000100503EB43034FF0A0411A44D1F81015CE
:108DF00046F8321006EBC20206EBC301506056F88B
:108E00003360D1F80CC00397D1E901321643D1E9A0
:108E1000040243EA0C0343EA020B0643002308E082
:108E2000D8F80000FDF718FC039B0133062B0393D1
:108E300021DC19F803305AF82330C3F120020BFA71
:108E400002F226FA03F0203B10432BFA03F31843F7
:108E500000F001043D4654EA050303AA02A9DFD14C
:108E6000D8F8000003AA02A9FDF70EFC039B01330A
:108E7000062B0393DDDD029B124A0021D05C14F027
:108E8000C1F9029B0133052B029396DD019C14F876
:108E9000010F002114F0B6F9084BA342F7D10B4A99
:108EA00013780133DBB2022B84BF084A002313700E
:108EB00005B0BDE8F08F00BF176000201E600020E5
:108EC000F0340400206000207866002074660020E2
:108ED0000003005034680020883D04001860002022
:108EE000224B1A8842F6AA139A4200D0704730B437
:108EF0001F4A1378202B14D8202B20D8DFE803F04A
:108F00002C15211F151F1F1F151F1F1F1F1F1F1F80
:108F1000151F1F1F1F1F1F1F1F1F1F1F1F1F1F1F6B
:108F20001500402B01D0802B09D1124B12481B7821
:108F300013443525012400215D700470117030BC8C
:108F400070470C4B0C481B78134435250124022133
:108F50005D7004701170F2E7064B07491B781A44E4
:108F60002920012350700B70E9E700BFFE63002049
:108F70002C640020456400204464002008B50120D2
:108F8000FFF71CFEBDE80840FFF71ABEF8B5D0E9B0
:108F900000638768BB420446A1EB06061DD08B42E6
:108FA00094460D461A4611D033F8020CBCF80070F6
:108FB00022F8020B981E8142626005D0421A981A6C
:108FC00015F0F8FF206830442F80F8BDBCF8001081
:108FD00022F8021B18466260F8BDFDF709FC206804
:108FE0003044F8BD2DE9F0470746294E17F8013BFC
:108FF000D6F800C082B0002B3BD0DFF898806446E2
:10900000B14616E030F8022C21F8022B9C42A3EB6B
:1090100004027160A0EB0200214605D015F0CAFFE2
:10902000D6F800C00CEB0A0325801C4617F8013B5C
:10903000FBB118F8135008EB4303D6E90102002DE9
:109040005B7814BF4FF4007500251D439042014624
:10905000A0F10203ADF80650A4EB0C0A0CD0A0421C
:109060002246CFD122F8025B726017F8013B002B39
:10907000DFD102B0BDE8F08721460DF10602484677
:10908000FDF7B6FBD6F800C00CEB0A04CEE700BF34
:1090900068660020603804002DE9F04342F2A60320
:1090A000984297B001F06D8100F2188141F2A61349
:1090B000984201F0298140F2CF8041F6AB139842EB
:1090C00001F0FB8040F2828041F6A653984201F005
:1090D000E98048D941F6AB63984201F0BE8030D9AF
:1090E00041F6A673984201F0418141F6AB73984274
:1090F00024D1CD4C40F262432168ADF8243009AA56
:109100002046FFF743FF40F25A432168ADF8243070
:1091100009AA2046FFF73AFF40F25C432168ADF808
:10912000243009AA2046FFF731FF40F25B43216853
:10913000ADF8243009AA2046FFF728FF17B0BDE894
:10914000F08341F6AB53984201F0EB8041F6A66301
:109150009842F3D1B54B93F8AB30002BEED0B44826
:10916000FFF740FFEAE741F6AB33984201F059843C
:109170004BD941F6A643984201F0488441F6AB43EF
:109180009842DBD1A84C09AA216840F262452046EA
:10919000ADF82450FFF7FAFE40F25A432168ADF8CB
:1091A000243009AA2046FFF7F1FE2168ADF82450CB
:1091B00009AA2046FFF7EAFE40F25C432168ADF8B9
:1091C000243009AA2046FFF7E1FEB7E741F2A65393
:1091D000984201F0EF8340F27A8341F6A603984269
:1091E00001F0DD8324D941F6AB03984201F00185FB
:1091F00041F6A6139842A1D18C4B93F8AB30002BCB
:109200009CD08C48FFF7EEFE98E741F6AB239842DE
:1092100001F05A8441F6A633984240F09483834B80
:1092200093F8AB30002B89D08348FFF7DBFE85E74E
:1092300041F2A663984201F01B8441F2A673984262
:109240007FF47CAF794B93F8AB30002B3FF476AFD3
:109250007A48FFF7C7FE71E740F6AB23984201F06A
:109260005A8440F2A58240F6A663984201F0AD828E
:1092700040F2618240F6AB73984201F0468377D9A1
:1092800041F2A603984201F0358341F2AB039842C4
:109290007FF454AF644C40F262432168ADF824304F
:1092A00009AA2046FFF772FE40F25A452168ADF840
:1092B000245009AA2046FFF769FE216809AA40F256
:1092C0005B432046ADF82430FFF760FE2168ADF81F
:1092D000245009AA2046FFF759FE2FE743F6AB3387
:1092E000984201F0378340F2E58044F2A623984289
:1092F00001F0F58240F2A48044F2AB53984201F0B1
:109300006C8578D946F6A613984201F05D8542D95E
:1093100046F6AB13984201F0878546F6AB23984298
:109320007FF40CAF404C09AA216840F2624320460A
:10933000ADF82430FFF72AFE216809AA40F259430C
:109340002046ADF82430FFF721FE216809AA40F23B
:109350005F432046ADF82430FFF718FE40F25E432D
:109360002168ADF8243009AA2046FFF70FFEE5E694
:1093700040F6AB63984201F0AE8440F6A673984283
:109380007FF4DCAE294B93F8AB30002B40F0EA843D
:10939000FDF7DEFED2E646F6A603984201F0008213
:1093A00046F6AB0398427FF4C9AE1F4C09AA216868
:1093B00040F262432046ADF82430FFF7E7FD216814
:1093C00009AA40F259432046ADF82430FFF7DEFDEC
:1093D000216809AA40F25D432046ADF82430FFF72A
:1093E000D5FD40F25C432168ADF8243009AA20463F
:1093F000FFF7CCFDA2E644F2A643984201F0C681F5
:1094000040F2808044F2AB43984200F0018744F27E
:10941000A65398427FF492AE044A92F8AB3083F0A0
:10942000010382F8AB3089E66866002034680020CA
:10943000D03104009C310400B831040080310400B4
:1094400043F6A673984200F08C8540F26F8344F295
:10945000AB03984200F05E8540F20E8244F2A61300
:10946000984200F04B8544F2AB1398427FF466AE0D
:10947000CC4C09AA216840F26245204640F25A4687
:10948000ADF82450FFF782FD2168ADF8246009AAE9
:109490002046FFF77BFD2168ADF8246009AA20462D
:1094A000FFF774FD2168ADF8245009AA2046FFF7A4
:1094B0006DFD43E642F2AB63984200F0F88440F25F
:1094C000DD8042F6AB63984200F0CA8440F2A0808F
:1094D00043F6A623984201F0808340D943F6AB239C
:1094E000984201F0538343F6A63398427FF426AEA8
:1094F000AD4B93F8AB30002B3FF420AEAB48FFF7F9
:1095000071FD1BE644F2A633984201F0998344F2C0
:10951000AB33984251D1A34C09AA216840F262436F
:109520002046ADF82430FFF731FD40F25A43216860
:10953000ADF8243009AA2046FFF728FD40F25D452A
:109540002168ADF8245009AA2046FFF71FFD2168C5
:10955000ADF8245009AA2046FFF718FDEEE543F2C6
:10956000AB63984200F0738743F2AB7398427FF489
:10957000E5AD8C4C09AA216840F262452046ADF861
:109580002450FFF703FD40F25A432168ADF8243020
:1095900009AA2046FFF7FAFC2168ADF8245009AA71
:1095A0002046FFF7F3FC40F25E432168ADF824301B
:1095B00009AA2046FFF7EAFCC0E544F2AB23984233
:1095C0007FF4BCAD774C09AA216840F26243204683
:1095D000ADF82430FFF7DAFC216809AA40F25A43BB
:1095E0002046ADF82430FFF7D1FC216809AA40F2EB
:1095F0005D432046ADF82430FFF7C8FC40F25B43E2
:109600002168ADF8243009AA2046FFF7BFFC95E594
:1096100042F6AB23984200F0F38651D942F6AB43B1
:10962000984200F0978742F6AB5398427FF486AD9C
:109630005C4C09AA216840F262432046ADF8243010
:10964000FFF7A4FC216809AA40F259432046ADF86F
:109650002430FFF79BFC216809AA40F25D432046B5
:10966000ADF82430FFF792FC40F25C432168ADF87E
:10967000243009AA2046FFF789FC5FE542F2AB33AC
:10968000984200F03A8740F2248242F2A653984270
:1096900000F0278721D942F2AB53984200F0FC86B4
:1096A00042F2A66398427FF449AD3F4B93F8AB304A
:1096B000002B40F0538342F2A660FDF773FE3DE5B8
:1096C00042F2AB73984200F0748642F6A6139842B9
:1096D00040F0628213F07CFC30E542F2A6439842EF
:1096E00000F05B8642F2AB4398427FF427AD2D4CED
:1096F00009AA216840F262432046ADF82430FFF702
:1097000045FC40F25A432168ADF8243009AA2046AE
:10971000FFF73CFC40F259452168ADF8245009AAF6
:109720002046FFF733FC2168ADF8245009AA2046F3
:10973000FFF72CFC02E540F6AB43984200F0428371
:1097400056D940F6A653984201F0BA8240F6AB5380
:1097500098427FF4F3AC134C09AA216840F26243AB
:109760002046ADF82430FFF711FC216809AA40F229
:1097700059432046ADF82430FFF708FC216809AAB8
:1097800040F261432046ADF82430FFF7FFFB40F282
:109790005E432168ADF8243009AA2046FFF7F6FBA6
:1097A000CCE400BF686600203468002080320400EA
:1097B00040F2A673984201F07F8240F2048140F6A5
:1097C000A613984201F06D8228D940F6AB13984257
:1097D00001F0D38240F6A62398427FF4AFACCB4B86
:1097E00093F8AB30002B40F0B582FDF7CBFCA5E43D
:1097F00040F6AB33984201F0998240F6A643984276
:1098000040F01681C14B93F8AB30002B40F09E82A4
:109810000320FDF767FCFDF7ADFC8FE440F6A603DF
:10982000984201F07F8240F6AB03984240F0C58138
:10983000B74C40F262432168ADF8243009AA2046B3
:10984000FFF7A4FB40F25A452168ADF8245009AA5D
:109850002046FFF79BFB2168ADF8245009AA20465B
:10986000FFF794FB4FF48C632168ADF8243009AA0C
:109870002046FFF78BFB61E443F6AB7398427FF41D
:109880005DACA34C09AA216840F262432046ADF8C2
:109890002430FFF77BFB216809AA40F25A43204697
:1098A000ADF82430FFF772FB216809AA40F2594352
:1098B0002046ADF82430FFF769FB4FF48C63216834
:1098C000ADF8243009AA2046FFF760FB36E441F2E8
:1098D000A633984200F0F98745D941F2AB3398425C
:1098E00000F0CC8741F2A64398427FF427AC874B27
:1098F000884A93F8AB30002182F82E10002B3FF4F9
:109900001DAC834C8448FFF76DFB28252168ADF81A
:10991000245009AA2046FFF739FB8048FFF762FB75
:109920002168ADF8245009AA2046FFF72FFB7C4898
:10993000FFF758FB2168ADF8245009AA2046FFF72D
:1099400025FBFFF7FBBB41F6A62398427FF4F6AB5D
:109950006E4B93F8AB30002B3FF4F0AB7148FFF740
:1099600041FBFFF7EBBB41F2A623984200F0628770
:1099700041F2AB2398426AD1654C09AA216840F2B2
:1099800062432046ADF82430FFF700FB216809AAA6
:1099900040F25A432046ADF82430FFF7F7FA216829
:1099A00009AA40F25B432046ADF82430FFF7EEFAF7
:1099B00040F25C432168ADF8243009AA2046FFF745
:1099C000E5FAFFF7BBBB40F2AB53984200F00D87BE
:1099D00067D940F2A663984200F0018740F2AB637A
:1099E00098427FF4ABAB4A4C40F262432168ADF839
:1099F000243009AA2046FFF7C9FA40F25A452168E7
:109A0000ADF8245009AA2046FFF7C0FA2168ADF846
:109A1000245009AA2046FFF7B9FA40F25E432168B4
:109A2000ADF8243009AA2046FFF7B0FAFFF786BB4D
:109A300040F6A63398427FF481AB344B93F8AB30B9
:109A4000002B3FF4D2AE3848FFF7CCFACDE641F216
:109A5000AB1398427FF472AB2D4C09AA216840F2F7
:109A600062432046ADF82430FFF790FA40F25A43A3
:109A70002168ADF8243009AA2046FFF787FA40F2A2
:109A80005B452168ADF8245009AA2046FFF77EFA0D
:109A90002168ADF8245009AA2046FFF777FAFFF7AE
:109AA0004DBB40F2AB43984200F0248640F2A653EF
:109AB000984240F0DC801748144A90F82A3001217F
:109AC0004B4080F82A3082F8AF1082F8AC10FFF7D4
:109AD00035BB42F2A623984200F06B8640F2978095
:109AE00042F2AB23984200F0DE8542F2A633984260
:109AF0007FF424AB054B93F8AB30002B40F03B8157
:109B000042F2A630FDF74EFCFFF718BB3468002088
:109B1000686600208C670020B4300400D030040058
:109B2000DC300400B03104002C31040043F6AB53A8
:109B3000984201F0918040F2A18043F6A6639842DA
:109B400000F02F8543F6AB6398427FF4F7AAB74C39
:109B500009AA216840F262432046ADF82430FFF79D
:109B600015FA40F25A432168ADF8243009AA20467C
:109B7000FFF70CFA40F259452168ADF8245009AAC4
:109B80002046FFF703FA2168ADF8245009AA2046C1
:109B9000FFF7FCF9FFF7D2BA42F2A67398427FF4BE
:109BA000CDAAA34B93F8AB30002B40F0E08042F2FB
:109BB000A670FDF7F7FBFFF7C1BA40F2AB7398420E
:109BC0007FF4BCAA994C40F262432168ADF824307E
:109BD00009AA2046FFF7DAF940F25A452168ADF8A4
:109BE000245009AA2046FFF7D1F92168ADF8245086
:109BF00009AA2046FFF7CAF940F25F432168ADF891
:109C0000243009AA2046FFF7C1F9FFF797BA42F2BC
:109C1000A613984200F0FD8042F2AB13984240D167
:109C2000824C09AA216840F262432046ADF82430F4
:109C3000FFF7ACF9216809AA40F25A432046ADF873
:109C40002430FFF7A3F9216809AA40F25C432046BB
:109C5000ADF82430FFF79AF940F25D432168ADF882
:109C6000243009AA2046FFF791F9FFF767BA40F2BE
:109C7000A64398427FF462AAFEF78EFF43F6AB43F9
:109C8000984200F05C8543F6A653984233D1694C64
:109C9000237B2678032B01F28E81DFE803F08070AE
:109CA0003C3C42F2AB0398427FF448AA5F4C09AABD
:109CB000216840F262432046ADF82430FFF766F990
:109CC00040F25A432168ADF8243009AA2046FFF734
:109CD0005DF940F25C452168ADF8245009AA2046A0
:109CE000FFF754F92168ADF8245009AA2046FFF780
:109CF0004DF9FFF723BA43F6A64398427FF41EAA14
:109D00004B4B93F8AB30002B3FF418AA4A48FFF7AF
:109D100069F9FFF713BA632E606841F2348115F0D8
:109D200005F809AD02460B4600964449284616F050
:109D300007F92846FFF756F93C4828230168ADF893
:109D40001C3007AAFFF722F9FFF7F8B93C48FFF7E4
:109D500049F95DE53B48FFF745F946E53A48FFF725
:109D600041F9A8E43948FFF73DF9FFF711BB38483E
:109D7000FFF738F91BE73748FFF734F9C0E6632EE1
:109D80006068029641F20B8114F0D0FF09ADCDE975
:109D90000001314A2846322116F09EF8C9E7606872
:109DA00014F0C4FF02460B46A068CDE9022314F06C
:109DB000BDFF09ADCDE90001284A2846322116F041
:109DC0008BF8B6E7194C09AA216840F26243204695
:109DD000ADF82430FFF7DAF8216809AA40F25943B8
:109DE0002046ADF82430FFF7D1F8216809AA40F2E7
:109DF00061432046ADF82430FFF7C8F840F25D43D8
:109E00002168ADF8243009AA2046FFF7BFF8FFF714
:109E100095B9074B93F8AB30002B41F07B8042F2B1
:109E2000A610FDF7BFFAFFF789B900BF68660020EA
:109E3000346800200867002088320400683004007D
:109E40003431040024310400483204004C31040051
:109E5000583204001832040038300400183004006E
:109E6000D84C09AA216840F262432046ADF824305C
:109E7000FFF78CF8216809AA40F259432046ADF853
:109E80002430FFF783F8216809AA40F25B4320469B
:109E9000ADF82430FFF77AF84FF48C632168ADF801
:109EA000243009AA2046FFF771F8FFF747B9C54CDF
:109EB00009AA216840F262432046ADF82430FFF73A
:109EC00065F8216809AA40F25A432046ADF82430CB
:109ED000FFF75CF8216809AA40F259432046ADF823
:109EE0002430FFF753F840F25B432168ADF824308B
:109EF00009AA2046FFF74AF8FFF720B9B24BB34949
:109F00000122002081F82F0083F8AF2083F8AC20D5
:109F1000FFF714B9AB4C09AA216840F2624320460E
:109F2000ADF82430FFF732F8216809AA40F25A430D
:109F30002046ADF82430FFF729F8216809AA40F23D
:109F400059432046ADF82430FFF720F840F2614332
:109F50002168ADF8243009AA2046FFF717F8FFF76B
:109F6000EDB8984C9A48DFF86092984E09AD4FF0E2
:109F70002808FFF737F82168ADF824802A462046E4
:109F8000FFF704F893490022284607AF15F0D8FFE1
:109F90002846FFF727F82168ADF81C803A4620468E
:109FA000FEF7F4FF8C496FF05902284615F0C8FF00
:109FB0002846FFF717F82168ADF81C803A4620467E
:109FC000FEF7E4FF8548FFF70DF82168ADF81C8027
:109FD0003A462046FEF7DAFF09F1600399F982203C
:109FE0007F49284615F0ACFF2846FEF7FBFF2168A5
:109FF000ADF81C803A462046FEF7C8FF09F13C0345
:10A0000099F95E207749284615F09AFF2846FEF711
:10A01000E9FF2168ADF81C803A462046FEF7B6FFFE
:10A0200009F1840399F9A6206F49284615F088FFA5
:10A030002846FEF7D7FF06F148092168ADF81C80D5
:10A040003A462046FEF7A2FF68494A46284615F0E0
:10A0500077FF2846FEF7C6FF96F8360096F83710C9
:10A0600096F8382096F839300093CDE90309CDE908
:10A070000121284696F83A3096F83B205C4915F0C5
:10A080005FFF2846FEF7AEFF96F82F30002B00F05A
:10A090003C87DFF8748121684A4828233A46ADF8A6
:10A0A0001C30FEF773FF53494246284615F048FF1F
:10A0B0002846FEF797FF96F83C0096F83D1096F874
:10A0C0003E2096F83F300093CDE90308CDE9012109
:10A0D000284696F8403096F84120474915F030FF61
:10A0E0002846FEF77FFF96F82F30012B00F04687B9
:10A0F000DFF818812168334828233A46ADF81C3030
:10A10000FEF744FF3D494246284615F019FF284610
:10A11000FEF768FF96F8420096F8431096F8442040
:10A1200096F845300093CDE90308CDE90121284692
:10A1300096F8463096F84720314915F001FF284639
:10A14000FEF750FF96F82F30022B00F012872826DA
:10A1500021681C48ADF81C603A46FEF717FF2168DD
:10A160001848ADF81C603A46FEF710FF3846FDF778
:10A1700081FA9DF81D009DF81E109DF81F209DF886
:10A180002030CDE90210CDE900321E499DF8213082
:10A190009DF82220284615F0D3FE2846FEF722FF20
:10A1A00021680848ADF81A600DF11A02FEF7EEFEBC
:10A1B00021680448ADF81A600DF11A02FEF7E6FEB8
:10A1C000FEF7BCBF68660020346800208C67002062
:10A1D0005433040074330400282C04003C2C040085
:10A1E000502C0400602C0400702C04008833040000
:10A1F00098330400D4330400E4330400143404001E
:10A200002434040054340400F4670020146800204F
:10A21000CC4C40F262432168ADF8243009AA2046B4
:10A22000FEF7B4FE40F25A452168ADF8245009AA61
:10A230002046FEF7ABFE2168ADF8245009AA20465F
:10A24000FEF7A4FE40F259432168ADF8243009AA74
:10A250002046FEF79BFEFEF771BFBA4C40F2624308
:10A260002168ADF8243009AA2046FEF78FFE40F29F
:10A270005A452168ADF8245009AA2046FEF786FE0B
:10A28000216809AA40F25C432046ADF82430FEF76D
:10A290007DFE2168ADF8245009AA2046FEF776FE1F
:10A2A000FEF74CBFA84B93F8AB30002B3EF446AF03
:10A2B000A648FEF797FEFEF741BFA24C09AA216807
:10A2C00040F262432046ADF82430FEF75FFE21687D
:10A2D00009AA40F25A432046ADF82430FEF756FE54
:10A2E000216809AA40F25B432046ADF82430FEF70E
:10A2F0004DFE40F25F432168ADF8243009AA2046A4
:10A30000FEF744FEFEF71ABF8F4B93F8AB30002BDD
:10A3100040F0F6850120FCF7E5FEFCF72BFFFEF789
:10A320000DBF884C09AA216840F262452046ADF86D
:10A330002450FEF72BFE40F25A432168ADF824303A
:10A3400009AA2046FEF722FE2168ADF8245009AA8A
:10A350002046FEF71BFE40F25D432168ADF8243035
:10A3600009AA2046FEF712FEFEF7E8BE764B93F8E8
:10A37000AB30002B3EF4E2AE7548FEF733FEFEF73D
:10A38000DDBE714B93F8AB30002B40F0AF8542F24D
:10A39000A600FDF707F8FEF7D1BE6B4B93F8AB3084
:10A3A000002B40F0A88542F2A640FCF7FBFFFEF729
:10A3B000C5BE644C09AA216840F262432046ADF84C
:10A3C0002430FEF7E3FD216809AA40F25A432046F3
:10A3D000ADF82430FEF7DAFD216809AA40F25943AE
:10A3E0002046ADF82430FEF7D1FD40F25C432168F1
:10A3F000ADF8243009AA2046FEF7C8FDFEF79EBE40
:10A40000504C09AA216840F262432046ADF824303E
:10A41000FEF7BCFD216809AA40F259432046ADF879
:10A420002430FEF7B3FD216809AA40F25E432046BE
:10A43000ADF82430FEF7AAFD40F25D432168ADF887
:10A44000243009AA2046FEF7A1FDFEF777BE3D4C59
:10A4500009AA216840F262452046ADF82450FEF773
:10A4600095FD40F25A432168ADF8243009AA2046F0
:10A47000FEF78CFD2168ADF8245009AA2046FEF7AE
:10A4800085FD40F25F432168ADF8243009AA2046DB
:10A49000FEF77CFDFEF752BE2A4C40F26243216873
:10A4A000ADF8243009AA2046FEF770FD40F25A4567
:10A4B0002168ADF8245009AA2046FEF767FD2168FF
:10A4C00009AA40F259432046ADF82430FEF75EFD5C
:10A4D0002168ADF8245009AA2046FEF757FDFEF783
:10A4E0002DBE194B93F8AB30002B40F0E08442F2C4
:10A4F000A650FCF757FFFEF721BE124C09AA2168AF
:10A5000040F262452046ADF82450FEF73FFD216839
:10A5100009AA40F25A432046ADF82430FEF736FD32
:10A52000216809AA40F259432046ADF82430FEF7CD
:10A530002DFD2168ADF8245009AA2046FEF726FD1E
:10A54000FEF7FCBD6866002034680020C8310400B6
:10A55000D8310400BC4C09AA216840F2624320466D
:10A56000ADF82430FEF712FD216809AA40F25943E4
:10A570002046ADF82430FEF709FD216809AA40F213
:10A580005E432046ADF82430FEF700FD40F25C4308
:10A590002168ADF8243009AA2046FEF7F7FCFEF743
:10A5A000CDBDA94CA948FEF71DFD28252168ADF8B1
:10A5B000245009AA2046FEF7E9FCA548FEF712FD43
:10A5C0002168ADF8245009AA2046FEF7DFFCA14817
:10A5D000FEF708FD2168ADF8245009AA2046FEF7D1
:10A5E000D5FC9D48FEF7FEFC2168ADF8245009AA71
:10A5F0002046FEF7CBFC12F053FC9849024609A80E
:10A6000015F09EFC07AF09A8FEF7ECFC2168ADF839
:10A610001C503A462046FEF7B9FC12F081FC9049E6
:10A62000024609A815F08CFC09A8FEF7DBFC21689E
:10A63000ADF81C503A462046FEF7A8FC0023894995
:10A64000002209A815F07CFC09A8FEF7CBFC2168C4
:10A65000ADF81C503A462046FEF798FC824B93F822
:10A660002E30012B00F07684022B00F07184002B39
:10A6700000F062847D4B93F8A730012B00F04F84EB
:10A68000022B00F06984002B7EF458AD7848FEF769
:10A69000A9FC282321686C48ADF81C303A46FEF727
:10A6A00075FCFEF74BBD684C09AA216840F2624375
:10A6B0002046ADF82430FEF769FC216809AA40F273
:10A6C0005A432046ADF82430FEF760FC216809AA01
:10A6D00040F25C432046ADF82430FEF757FC40F2D0
:10A6E0005E432168ADF8243009AA2046FEF74EFCEF
:10A6F000FEF724BD544C40F262432168ADF824308B
:10A7000009AA2046FEF742FC40F25A452168ADF8FE
:10A71000245009AA2046FEF739FC2168ADF82450E0
:10A7200009AA2046FEF732FC40F25C432168ADF8EE
:10A73000243009AA2046FEF729FCFEF7FFBC424C54
:10A7400009AA216840F262432046ADF82430FEF7A2
:10A750001DFC216809AA40F25A432046ADF8243076
:10A76000FEF714FC216809AA40F25D432046ADF8CB
:10A770002430FEF70BFC40F259432168ADF8243039
:10A7800009AA2046FEF702FCFEF7D8BC374B93F827
:10A79000A730012B3EF4D2AC01F074FDFEF7CEBC25
:10A7A0003449354801F0B0FB334801F0D1FAFEF7E7
:10A7B000C5BC2E4B93F8AB30002B40F06C8342F2BB
:10A7C000A620FCF7EFFDFEF7B9BC284B93F8AB30A1
:10A7D000002B40F05883FCF7A5FCFEF7AFBC234BE1
:10A7E000012283F8AE20FEF7A9BC174C40F2624369
:10A7F0002168ADF8243009AA2046FEF7C7FB40F2D5
:10A800005A452168ADF8245009AA2046FEF7BEFB40
:10A810002168ADF8245009AA2046FEF7B7FB40F2A4
:10A820005D432168ADF8243009AA2046FEF7AEFB4F
:10A83000FEF784BC0D4B93F8AB30002B40F02F8318
:10A84000FCF756FCFEF77ABC68660020AC2B0400CF
:10A85000D02B0400F42B040090320400AC3204002E
:10A86000C0320400142C04008C67002034680020DF
:10A8700044330400F9BB020008670020B94C09AA60
:10A88000216840F262432046ADF82430FEF77EFB9B
:10A89000216809AA40F25A432046ADF82430FEF759
:10A8A00075FB216809AA40F25B432046ADF82430CD
:10A8B000FEF76CFB40F25D432168ADF8243009AA35
:10A8C0002046FEF763FBFEF739BCA74B93F8AB308D
:10A8D000002B40F0DC82FCF719FCFEF72FBCA24AEB
:10A8E000A249012381F82F3082F8AF3082F8AC30D2
:10A8F000FEF724BC9C4B93F8AB30002B40F0D38286
:10A900000220FCF7EFFBFEF719BC964C09AA216860
:10A9100040F262432046ADF82430FEF737FB40F2A8
:10A9200059432168ADF8243009AA2046FEF72EFBD2
:10A9300040F261452168ADF8245009AA2046FEF78F
:10A9400025FB2168ADF8245009AA2046FEF71EFB1E
:10A95000FEF7F4BB834C09AA216840F26245204609
:10A96000ADF82450FEF712FB216809AA40F25A43C1
:10A970002046ADF82430FEF709FB216809AA40F211
:10A980005D432046ADF82430FEF700FB2168ADF8AA
:10A99000245009AA2046FEF7F9FAFEF7CFBB724B06
:10A9A00093F8AB30002B3EF4C9AB7148FEF71AFBAD
:10A9B000FEF7C4BB6C4B6D4A93F8AB30012182F8B3
:10A9C0002E10002B3EF4BAAB664C6A48FEF70AFB29
:10A9D00028252168ADF8245009AA2046FEF7D6FAAA
:10A9E0006548FEF7FFFA2168ADF8245009AA204611
:10A9F000FEF7CCFA6148FEF7F5FA2168ADF824506D
:10AA000009AA2046FEF7C2FAFEF798BB564B93F808
:10AA1000AB30002B3EF492AB5948FEF7E3FAFEF759
:10AA20008DBB504C09AA216840F262432046ADF824
:10AA30002430FEF7ABFA216809AA40F25A432046B7
:10AA4000ADF82430FEF7A2FA216809AA40F25B4370
:10AA50002046ADF82430FEF799FA40F261432168B0
:10AA6000ADF8243009AA2046FEF790FAFEF766BB3F
:10AA70003D4B3E4A93F8AB30022182F82E10002B5A
:10AA80003EF45CAB374C3B48FEF7ACFA2825216816
:10AA9000ADF8245009AA2046FEF778FA3948FEF7A7
:10AAA000A1FA2168ADF8245009AA2046FEF76EFAF3
:10AAB0003548FEF797FA2168ADF8245009AA2046D8
:10AAC000FEF764FAFEF73ABB264C09AA216840F269
:10AAD00062432046ADF82430FEF758FA216809AAEF
:10AAE00040F25A432046ADF82430FEF74FFA216871
:10AAF00009AA40F25B432046ADF82430FEF746FA3F
:10AB00004FF48C632168ADF8243009AA2046FEF783
:10AB10003DFAFEF713BB134C09AA216840F26243C9
:10AB20002046ADF82430FEF731FA216809AA40F238
:10AB300059432046ADF82430FEF728FA216809AAC7
:10AB400040F261432046ADF82430FEF71FFA40F290
:10AB50005B432168ADF8243009AA2046FEF716FAB7
:10AB6000FEF7ECBA68660020346800208C6700208D
:10AB700088310400E8300400FC300400DC300400BC
:10AB8000C0310400D030040010310400CA4C09AABE
:10AB9000216840F262432046ADF82430FEF7F6F912
:10ABA000216809AA40F25A432046ADF82430FEF746
:10ABB000EDF9216809AA40F25C432046ADF8243043
:10ABC000FEF7E4F940F261432168ADF8243009AAA8
:10ABD0002046FEF7DBF9FEF7B1BAB84B93F8AB307D
:10ABE000002B40F04C8143F6A620FCF7DBFBFEF780
:10ABF000A5BAB14C09AA216840F262432046ADF8DB
:10AC00002430FEF7C3F9216809AA40F25A432046CE
:10AC1000ADF82430FEF7BAF9216809AA40F25B4387
:10AC20002046ADF82430FEF7B1F940F25E432168CA
:10AC3000ADF8243009AA2046FEF7A8F9FEF77EBA3F
:10AC40009E4B9F490122022081F82F0083F8AF20FC
:10AC500083F8AC20FEF772BA974C40F26243216849
:10AC6000ADF8243009AA2046FEF790F940F25A4583
:10AC70002168ADF8245009AA2046FEF787F921681B
:10AC800009AA40F25D432046ADF82430FEF77EF974
:10AC90002168ADF8245009AA2046FEF777F9FEF79F
:10ACA0004DBA864B93F8A720022A7EF447AA0122C8
:10ACB00083F8AD20FEF742BA12F09AF9FEF73EBAD9
:10ACC0007E4B93F8AB30002B40F0D5800020FCF792
:10ACD00009FAFEF733BA784C09AA216840F26243B8
:10ACE0002046ADF82430FEF751F9216809AA40F258
:10ACF0005A432046ADF82430FEF748F9216809AAE6
:10AD000040F25B432046ADF82430FEF73FF940F2B5
:10AD100059432168ADF8243009AA2046FEF736F9D8
:10AD2000FEF70CBA12F05CF9FEF708BA624C09AAF9
:10AD3000216840F262432046ADF82430FEF726F940
:10AD4000216809AA40F259432046ADF82430FEF7A5
:10AD50001DF9216809AA40F261432046ADF824306C
:10AD6000FEF714F940F25C432168ADF8243009AADB
:10AD70002046FEF70BF9FEF7E1B94F4C09AA21680E
:10AD800040F262432046ADF82430FEF7FFF8216818
:10AD900009AA40F259432046ADF82430FEF7F6F8F0
:10ADA000216809AA40F261432046ADF82430FEF73D
:10ADB000EDF840F25A432168ADF8243009AA204644
:10ADC000FEF7E4F8FEF7BAB93E493F4801F09CF8B7
:10ADD0003D4800F0BDFFFEF7B1B9374C09AA216824
:10ADE00040F262432046ADF82430FEF7CFF82168E8
:10ADF00009AA40F259432046ADF82430FEF7C6F8C0
:10AE0000216809AA40F25D432046ADF82430FEF7E0
:10AE1000BDF840F261432168ADF8243009AA20460C
:10AE2000FEF7B4F8FEF78AB9234C09AA216840F26C
:10AE300062432046ADF82430FEF7A8F8216809AA3D
:10AE400040F259432046ADF82430FEF79FF82168C0
:10AE500009AA40F25B432046ADF82430FEF796F88D
:10AE60004FF48C632168ADF8243009AA2046FEF720
:10AE70008DF8FEF763B91548FEF7B4F826E71448D5
:10AE8000FEF7B0F8AFE61348FEF7ACF8A3E41248BB
:10AE9000FEF7A8F81FE51148FEF7A4F88FE4104864
:10AEA000FEF7A0F8CCE40F48FEF79CF828E50E4822
:10AEB000FEF798F8FFF71BBB686600203468002097
:10AEC0008C6700200DBF0200086700203C310400A1
:10AED0006C32040044310400743104000432040074
:10AEE0006831040054310400383204003348FEF75E
:10AEF00079F8FFF74CBA3248FEF774F8FFF753BA07
:10AF00003048FEF76FF8FFF705BA2F48FEF76AF8EA
:10AF1000FFF7BFB82D48FEF765F8FEF780BF2C4855
:10AF2000FEF760F8282321682A48ADF81C303A461D
:10AF3000FEF72CF8FEF702B92748FEF753F8216810
:10AF4000ADF81C503A462046FEF720F8FFF792BBBA
:10AF50002248F2E72248F0E72248FEF743F8282388
:10AF600021681C48ADF81C303A46FEF70FF8FEF792
:10AF7000E5B81548FEF736F8FFF7E9B81248FEF7CE
:10AF800031F8FFF7B5B813F0D1FE09AD02460B4614
:10AF900000961549284614F0D3FFFEF7CABE13F0F9
:10AFA000C5FE09ADCDE90001104A2846322114F052
:10AFB00093FFFEF7BEBE09ADFEF7BBBEE031040055
:10AFC000283204005C310400C8330400F03104006E
:10AFD0002433040068660020D432040008330400DF
:10AFE000EC3204003433040080300400503004009C
:10AFF0002DE9F84FD0E90087334B344E0546A7EBD7
:10B000000800401003FB00F3B34251D08A46934638
:10B01000002B48D0B3EB430F4FEA4302A1EB0804E7
:10B0200022D9DFF8B090484612F096FF06468144D8
:10B030003319DBF80000DBF80410BBF808203051AE
:10B04000002C59601A8113DCA7EB0A070A34002F81
:10B05000344422DC3C44B8F1000F15D1C5E900644A
:10B06000C5F80890BDE8F88F2ABB91461646DFE781
:10B07000224641463046A7EB0A0713F09BFF0A34ED
:10B08000002F344409DC3C44404612F085FFC5E9FA
:10B090000064C5F80890BDE8F88F51463A4620464E
:10B0A00013F07AFFD6E7A1EB08044FF00A09BAE7DC
:10B0B0000748FDF76FFDB24228BF32464FF00A093C
:10B0C00009FB02F9AFE700BFCDCCCCCCCCCCCC0C8B
:10B0D00078260400F8FFFF7F2DE9F041D0E9013721
:10B0E0000668BB4284B00446A1EB060838D08B4208
:10B0F0000D46164626D01A46306852F80ACD7168B9
:10B1000057683689C3F800C05F6012891A8101ABA5
:10B1100003C360681E80A0F10A0200F10A03954291
:10B12000636004D0521B801A294613F043FF01AB21
:10B1300003CB1B882B81286069602068404404B0E1
:10B14000BDE8F0811268716859601A6032891A810D
:10B1500043680A3343602068404404B0BDE8F0818E
:10B16000FFF746FF2068404404B0BDE8F08100BF0F
:10B170002DE9F0418B4C86B0FBF714FD2388002BA2
:10B1800040F09180884C238833B140F2A54293422D
:10B1900000F0BF8000232380844DD5E90023934233
:10B1A0006AD0834A834C12788DF80D2000268DF8E2
:10B1B0000C608DF81260CDF80E60ADF8146033F8B5
:10B1C000027C33F8028D6B6021687FBA204603AAA7
:10B1D000ADF80C70FFF780FF6B6833F8023C434515
:10B1E0004FEA182000F08B80D4E900739F4248D0CA
:10B1F00053F80A0D704D59686A46164603C695F80D
:10B20000A710188930800129636000F09C80022912
:10B2100057D000294CD09F4212D0684C2A6823781E
:10B2200023B96B68D31AB3F57A7F06D9644B6A6089
:10B230001878FCF797FA0023237006B0BDE8F08178
:10B240005B4B95F8A7201B788DF80D30012A4FF045
:10B2500000038DF812308DF80C30CDF80E30ADF8BB
:10B26000143065D0022A58D0002AD6D1394603AA14
:10B270005048FFF731FFD0E74E4CD4E900739F42AE
:10B28000B6D1504B1C784CB34B4D95F8A730012BE1
:10B290007ED0022B75D0002BBFD14B4A4548394692
:10B2A000FFF71AFFB9E7FDF71BFE0023238069E7CC
:10B2B00019464048FFF710FFD4E900739F42ACD114
:10B2C000BEE707CAFCF762FA404BD86840000EF0B0
:10B2D000C1FED4E900739F429FD1B1E73C4E308854
:10B2E000002849D13B4C208888B3334D95F8A730CE
:10B2F000012B3ED0022B39D0002323808DE78DF81F
:10B300000C0021688DF80D6003AA2046FFF7E4FECB
:10B310006AE73148FDF766FE3CE706AB13E9070034
:10B32000FCF734FA294BD86840000EF093FE74E71E
:10B3300006AB13E9070001F067F8244BD86840001A
:10B340000EF088FE69E707CA01F05EF8BCE7234CFF
:10B35000194D208800283FF460AF95F8A730012BE5
:10B360001DD0022BC8D1FCF72FFAC5E7FCF7F4FA81
:10B37000C2E701F05BF8BFE7FDF78EFE0E4D3480AB
:10B380004BE7114B186859681A89FCF7FFF944E735
:10B390000D4B186859681A8901F036F83DE701F03D
:10B3A00051F8A9E7FE6300205A6400206866002077
:10B3B000DC3404005C660020346800200064002057
:10B3C000DE630020446400202C6400208C67002091
:10B3D0005264002068640020A43004005C640020F3
:10B3E00010B5FDF7CBFCFFF7C3FEFBF7FBF91E4BD7
:10B3F000D9681C68884238BF0846844293F8A71071
:10B40000D86006D9241A41B302291FD0092C03D9C8
:10B4100010BD91B102290FD0144801F0B3FA0028F1
:10B42000F6D1134802F0B4FF0028F1D10146BDE87F
:10B4300010400F4802F0B8BF0121002000F04EFF7D
:10B440000A4801F09FFA0028E2D1EAE701212046EC
:10B4500000F044FF092CDBD8DEE7204600F03EFF79
:10B46000092CD5D8D8E700BF3468002090A100206F
:10B470002CA10020F8B51C4F1C4D1D4C1D4E38460C
:10B4800012F04CFE2A461C49384613F0DDFC2046DB
:10B4900012F044FE2A4618492046184C13F0D4FCFA
:10B4A0001749184805F0D6FB32462146164800F0E9
:10B4B00073FD324621461548FBF7C2F8144800F0E8
:10B4C000C1FB1448144900242A46C0E900448460A2
:10B4D00013F0BAFC114812490460C0E901442A463D
:10B4E000BDE8F84013F0B0BCF46800200060002014
:10B4F0002067002034680020CDE003008C67002026
:10B500003CA2002028670020FC680020F068002092
:10B510000867002068660020316602005C66002033
:10B52000C58B020008B50A490A4805F06BFA0849BC
:10B530000948012205F0E0FD00B908BD07490648A9
:10B54000A82205F093FABDE80840034805F03CBC8A
:10B55000803404003CA20020286700208C67002073
:10B5600038B52D480BF062F82C492D48002205F023
:10B57000C3FD2B4805F050FEF8B12A492848A822FF
:10B5800005F0ACFB264805F01FFC264C2378052B64
:10B590002CD1254C00256582A4F8B05084F8B25017
:10B5A00084F8AB500EF04AFD84F8A750C4E90000BF
:10B5B000C4E90255C4F8AC5038BDFDF79BFB1749F0
:10B5C000154805F01FFA15491548012205F094FDAC
:10B5D0000028DAD013491248124CA82205F046FA86
:10B5E0000F4805F0F1FB2378052BD2D0FDF782FB45
:10B5F0000A49094805F006FA08490948012205F0F8
:10B600007BFD0028C5D02146A822054805F02EFA6A
:10B61000034805F0D9FBBCE73CA2002080340400BD
:10B62000286700208C6700203468002070B54E4CDD
:10B6300082B000F0B1FE00F07FFD00F007FEFFF7E2
:10B640008FFF94F82A30002B51D194F82530002B2D
:10B6500076D194F82730002B7AD10123434A6168D0
:10B6600043480093002312F061FD94F82F00414DF0
:10B67000FCF7F0F900F0A2F9EE1D15F8010B00211E
:10B6800011F0C0FDB542F8D13B4DAE1D15F8010BD0
:10B69000022111F0B7FDB542F8D1FBF7F5FF3448B0
:10B6A00012F058FD354BD3E900218A4218BF5A6089
:10B6B000334BD3E900218A4218BF5A6094F82030F6
:10B6C000002B4DD194F82130002B46D12D4800F0AD
:10B6D0006FFC2C4800F086FC2B4B00932B492C4828
:10B6E00000234FF4806212F0A3FC02B070BD294821
:10B6F0004FF4E13112F048F92749264811F0B4FE21
:10B700002649244811F0B0FE2549224811F0ACFE2C
:10B710002449204811F0A8FE23491E4811F0A4FE38
:10B7200022491C4811F0A0FE21491A4811F09CFE44
:10B730002049184811F098FE94F82530002B88D045
:10B7400094F8260000F07EFD94F82730002B84D07A
:10B7500094F8280000F078FD7FE7FBF713FEB5E7CB
:10B76000A07E00F025FDADE78C670020E1B302006C
:10B77000F468002018600020206000206866002027
:10B780005C660020FC6800208C340400D58B02002D
:10B7900090BF0020E8BD0020802C0400C42C0400D1
:10B7A000082D04004C2D0400902D0400D42D04001D
:10B7B000BC27040010270400F0B5784D8FB000F0CE
:10B7C00055FD95F82A30E3B995F82E60012E1ED06C
:10B7D000022E00F0AE80002E00F09580704C94F8A0
:10B7E000AD308BBB94F8AF30002B7DD194F8AE30E8
:10B7F00013BB94F8AC302BBB28690EF02BFC0FB0B8
:10B80000F0BDFCF7B9FC95F82E60012EE0D100F0F8
:10B81000EDFD634C002800F0938094F8A730012BD5
:10B82000DDD0FBF78BFF002840F0B280FBF764FF10
:10B83000012384F8A730D2E75A4805F03BF80123EA
:10B8400084F8AC30FDF7A8F90026FBF781FF3146FC
:10B850001D2206A8059613F0C7FB95F82F30524914
:10B86000183305A835F8132014F06AFB05A94D48D4
:10B8700005F0C8F895F82F204C4902EB420205EB81
:10B88000420205A892F83B7092F83A30039792F87A
:10B890003970029392F83830CDE9003792F837309A
:10B8A00092F8362014F04CFB05A93E4805F0AAF8A2
:10B8B00095F82F203E493620062313FB0203183249
:10B8C000E8184FF6FF7725F81270EE50868095F84D
:10B8D0002F3007C905EB4313483303C301211A7006
:10B8E00084F8AF1084F8AC1032492E4805F08AF87D
:10B8F00030493148012205F0FFFB00283FD10023E9
:10B9000084F8AF3072E700F071FD38B3244C94F83E
:10B91000A730012B3FF463AFFBF710FF00283AD1AB
:10B92000FBF7EAFE012384F8A7300EF087FBE06006
:10B9300055E7FBF703FF1A4C28B184F8A7604EE7E0
:10B9400084F8A7004BE794F8A730002B3FF447AFEB
:10B95000FBF79AFE002384F8A73040E7FBF7EEFEE2
:10B960000F4C94F8A7300028EFD0022B3FF437AFEC
:10B97000022384F8A7300EF061FBE0602FE707494F
:10B980000D48A82205F072F80B4805F01DFAB6E73D
:10B99000FBF7DEFE4AE7FBF7DBFEC1E78C67002022
:10B9A000346800203CA2002090340400AC34040031
:10B9B0009830040080340400286700202DE9F0410D
:10B9C000AAB01049104EDFF84480A822684613F050
:10B9D000E3FAADF10407A6F6DC043D46204655F82F
:10B9E000043F0022012104F5A274FAF78DFDB44250
:10B9F000F4D104F6DC06464507F11C07EBD12AB06A
:10BA0000BDE8F081F8340400E871002010A70020A0
:10BA100010B55E4C2E212046FAF766FD04F5A270A3
:10BA20001E21FAF761FD04F522701F21FAF75CFD73
:10BA300004F573702021FAF757FD04F5A260212167
:10BA4000FAF752FD04F254602221FAF74DFD04F595
:10BA5000F36044F2A611FAF747FD04F6DC002B214F
:10BA6000FAF742FD04F522601421FAF73DFD04F6D1
:10BA700064301A21FAF738FD04F6A8400821FAF7D5
:10BA800033FD04F6EC501521FAF72EFD04F5736032
:10BA90001721FAF729FD2F213D48FAF725FDE0216E
:10BAA0003C48FAF721FD04213B48FAF71DFD04F557
:10BAB000A2501621FAF718FD07213848FAF714FDAD
:10BAC00009213748FAF710FD0A213648FAF70CFD2C
:10BAD00001213548FAF708FDE1213448FAF704FD61
